{
  "address": "0x1B55eDDFdF7AE62D14057470Dec956A72c4f6957",
  "abi": [
    {
      "inputs": [
        {
          "internalType": "address",
          "name": "_minerNFT",
          "type": "address"
        },
        {
          "internalType": "address",
          "name": "_mmToken",
          "type": "address"
        }
      ],
      "stateMutability": "nonpayable",
      "type": "constructor"
    },
    {
      "inputs": [
        {
          "internalType": "address",
          "name": "owner",
          "type": "address"
        }
      ],
      "name": "OwnableInvalidOwner",
      "type": "error"
    },
    {
      "inputs": [
        {
          "internalType": "address",
          "name": "account",
          "type": "address"
        }
      ],
      "name": "OwnableUnauthorizedAccount",
      "type": "error"
    },
    {
      "anonymous": false,
      "inputs": [
        {
          "indexed": false,
          "internalType": "uint256[5]",
          "name": "newDropRates",
          "type": "uint256[5]"
        }
      ],
      "name": "GachaConfigUpdated",
      "type": "event"
    },
    {
      "anonymous": false,
      "inputs": [
        {
          "indexed": true,
          "internalType": "address",
          "name": "buyer",
          "type": "address"
        },
        {
          "indexed": true,
          "internalType": "uint256",
          "name": "packId",
          "type": "uint256"
        },
        {
          "indexed": false,
          "internalType": "uint256[3]",
          "name": "tokenIds",
          "type": "uint256[3]"
        },
        {
          "indexed": false,
          "internalType": "enum MinerNFT.MinerType[3]",
          "name": "minerTypes",
          "type": "uint8[3]"
        },
        {
          "indexed": false,
          "internalType": "uint256",
          "name": "price",
          "type": "uint256"
        }
      ],
      "name": "GachaPackPurchased",
      "type": "event"
    },
    {
      "anonymous": false,
      "inputs": [
        {
          "indexed": true,
          "internalType": "address",
          "name": "previousOwner",
          "type": "address"
        },
        {
          "indexed": true,
          "internalType": "address",
          "name": "newOwner",
          "type": "address"
        }
      ],
      "name": "OwnershipTransferred",
      "type": "event"
    },
    {
      "inputs": [],
      "name": "GACHA_PRICE",
      "outputs": [
        {
          "internalType": "uint256",
          "name": "",
          "type": "uint256"
        }
      ],
      "stateMutability": "view",
      "type": "function"
    },
    {
      "inputs": [],
      "name": "PACK_SIZE",
      "outputs": [
        {
          "internalType": "uint256",
          "name": "",
          "type": "uint256"
        }
      ],
      "stateMutability": "view",
      "type": "function"
    },
    {
      "inputs": [
        {
          "internalType": "uint256",
          "name": "",
          "type": "uint256"
        }
      ],
      "name": "dropRates",
      "outputs": [
        {
          "internalType": "uint256",
          "name": "",
          "type": "uint256"
        }
      ],
      "stateMutability": "view",
      "type": "function"
    },
    {
      "inputs": [],
      "name": "getContractStats",
      "outputs": [
        {
          "internalType": "uint256",
          "name": "totalPacks",
          "type": "uint256"
        },
        {
          "internalType": "uint256",
          "name": "totalRevenue",
          "type": "uint256"
        },
        {
          "internalType": "uint256",
          "name": "contractMMBalance",
          "type": "uint256"
        }
      ],
      "stateMutability": "view",
      "type": "function"
    },
    {
      "inputs": [],
      "name": "getDropRates",
      "outputs": [
        {
          "internalType": "uint256[5]",
          "name": "",
          "type": "uint256[5]"
        }
      ],
      "stateMutability": "view",
      "type": "function"
    },
    {
      "inputs": [
        {
          "internalType": "address",
          "name": "user",
          "type": "address"
        }
      ],
      "name": "getUserPackCount",
      "outputs": [
        {
          "internalType": "uint256",
          "name": "",
          "type": "uint256"
        }
      ],
      "stateMutability": "view",
      "type": "function"
    },
    {
      "inputs": [
        {
          "internalType": "address",
          "name": "user",
          "type": "address"
        }
      ],
      "name": "getUserPackHistory",
      "outputs": [
        {
          "components": [
            {
              "internalType": "address",
              "name": "buyer",
              "type": "address"
            },
            {
              "internalType": "uint256[3]",
              "name": "tokenIds",
              "type": "uint256[3]"
            },
            {
              "internalType": "enum MinerNFT.MinerType[3]",
              "name": "minerTypes",
              "type": "uint8[3]"
            },
            {
              "internalType": "uint256",
              "name": "timestamp",
              "type": "uint256"
            }
          ],
          "internalType": "struct GachaSystem.GachaPack[]",
          "name": "",
          "type": "tuple[]"
        }
      ],
      "stateMutability": "view",
      "type": "function"
    },
    {
      "inputs": [],
      "name": "minerNFT",
      "outputs": [
        {
          "internalType": "contract MinerNFT",
          "name": "",
          "type": "address"
        }
      ],
      "stateMutability": "view",
      "type": "function"
    },
    {
      "inputs": [],
      "name": "mmToken",
      "outputs": [
        {
          "internalType": "contract IERC20",
          "name": "",
          "type": "address"
        }
      ],
      "stateMutability": "view",
      "type": "function"
    },
    {
      "inputs": [],
      "name": "owner",
      "outputs": [
        {
          "internalType": "address",
          "name": "",
          "type": "address"
        }
      ],
      "stateMutability": "view",
      "type": "function"
    },
    {
      "inputs": [],
      "name": "purchaseGachaPack",
      "outputs": [
        {
          "internalType": "uint256[3]",
          "name": "tokenIds",
          "type": "uint256[3]"
        },
        {
          "internalType": "enum MinerNFT.MinerType[3]",
          "name": "minerTypes",
          "type": "uint8[3]"
        }
      ],
      "stateMutability": "nonpayable",
      "type": "function"
    },
    {
      "inputs": [],
      "name": "renounceOwnership",
      "outputs": [],
      "stateMutability": "nonpayable",
      "type": "function"
    },
    {
      "inputs": [
        {
          "internalType": "address",
          "name": "_mmToken",
          "type": "address"
        }
      ],
      "name": "setMMToken",
      "outputs": [],
      "stateMutability": "nonpayable",
      "type": "function"
    },
    {
      "inputs": [
        {
          "internalType": "address",
          "name": "_minerNFT",
          "type": "address"
        }
      ],
      "name": "setMinerNFT",
      "outputs": [],
      "stateMutability": "nonpayable",
      "type": "function"
    },
    {
      "inputs": [
        {
          "internalType": "uint256",
          "name": "seed",
          "type": "uint256"
        }
      ],
      "name": "simulateGachaPack",
      "outputs": [
        {
          "internalType": "enum MinerNFT.MinerType[3]",
          "name": "",
          "type": "uint8[3]"
        }
      ],
      "stateMutability": "view",
      "type": "function"
    },
    {
      "inputs": [],
      "name": "totalPacksSold",
      "outputs": [
        {
          "internalType": "uint256",
          "name": "",
          "type": "uint256"
        }
      ],
      "stateMutability": "view",
      "type": "function"
    },
    {
      "inputs": [
        {
          "internalType": "address",
          "name": "newOwner",
          "type": "address"
        }
      ],
      "name": "transferOwnership",
      "outputs": [],
      "stateMutability": "nonpayable",
      "type": "function"
    },
    {
      "inputs": [
        {
          "internalType": "uint256[5]",
          "name": "newDropRates",
          "type": "uint256[5]"
        }
      ],
      "name": "updateDropRates",
      "outputs": [],
      "stateMutability": "nonpayable",
      "type": "function"
    },
    {
      "inputs": [
        {
          "internalType": "address",
          "name": "",
          "type": "address"
        },
        {
          "internalType": "uint256",
          "name": "",
          "type": "uint256"
        }
      ],
      "name": "userPackHistory",
      "outputs": [
        {
          "internalType": "address",
          "name": "buyer",
          "type": "address"
        },
        {
          "internalType": "uint256",
          "name": "timestamp",
          "type": "uint256"
        }
      ],
      "stateMutability": "view",
      "type": "function"
    },
    {
      "inputs": [
        {
          "internalType": "address",
          "name": "to",
          "type": "address"
        }
      ],
      "name": "withdrawAllMM",
      "outputs": [],
      "stateMutability": "nonpayable",
      "type": "function"
    },
    {
      "inputs": [
        {
          "internalType": "address",
          "name": "to",
          "type": "address"
        },
        {
          "internalType": "uint256",
          "name": "amount",
          "type": "uint256"
        }
      ],
      "name": "withdrawMM",
      "outputs": [],
      "stateMutability": "nonpayable",
      "type": "function"
    }
  ],
  "transactionHash": "0x32163322b33beb3f4928c2c66fa11750641aa6bcf1deb511e897b80db0ae059b",
  "args": [
    "0xE21001E072472642946B3Cc2Daa71f602EF92234",
    "0xe719FA04EEf22ff2F5c9f2f0817BD5E0a750B6F1"
  ],
  "numDeployments": 4,
  "solcInputHash": "8f10f76b15ee839fe87cae778b661d96",
  "bytecode": "0x61012060405260c8608081815260a082905260c082905260e0829052610100919091526200003290600390600562000118565b503480156200004057600080fd5b506040516200174f3803806200174f833981016040819052620000639162000194565b33806200008a57604051631e4fbdf760e01b81526000600482015260240160405180910390fd5b6200009581620000c8565b50600180546001600160a01b039384166001600160a01b03199182161790915560028054929093169116179055620001cc565b600080546001600160a01b038381166001600160a01b0319831681178455604051919092169283917f8be0079c531659141344cd1fd0a4f28419497f9722a3daafe3b4186f6b6457e09190a35050565b82600581019282156200014e579160200282015b828111156200014e578251829060ff169055916020019190600101906200012c565b506200015c92915062000160565b5090565b5b808211156200015c576000815560010162000161565b80516001600160a01b03811681146200018f57600080fd5b919050565b60008060408385031215620001a857600080fd5b620001b38362000177565b9150620001c36020840162000177565b90509250929050565b61157380620001dc6000396000f3fe608060405234801561001057600080fd5b50600436106101375760003560e01c8063c4d137c6116100b8578063ec1c773b1161007c578063ec1c773b146102b0578063f10236c4146102d0578063f2f8a0c5146102e6578063f2fde38b146102f9578063fb28ac6b1461030c578063ff6586611461031f57600080fd5b8063c4d137c61461021e578063d75fb2af14610231578063d7e914e814610244578063dfe6b5d614610264578063e0ed7d891461028757600080fd5b806388a62541116100ff57806388a62541146101b95780638c2fb84d146101c85780638da5cb5b146101dd578063a890dd9014610202578063c0abba9e1461021557600080fd5b80632d0e9cec1461013c5780633d0c9cc4146101735780634da3255d146101895780635cc442ca1461019e578063715018a6146101b1575b600080fd5b61014f61014a3660046110ed565b610332565b604080516001600160a01b0390931683526020830191909152015b60405180910390f35b61017b600381565b60405190815260200161016a565b61019c610197366004611117565b610378565b005b61019c6101ac366004611139565b6103a2565b61019c61048d565b61017b678ac7230489e8000081565b6101d06104a1565b60405161016a9190611161565b6000546001600160a01b03165b6040516001600160a01b03909116815260200161016a565b6002546101ea906001600160a01b031681565b61017b60095481565b6001546101ea906001600160a01b031681565b61019c61023f366004611117565b6104dc565b610257610252366004611192565b610610565b60405161016a9190611219565b61026c61072c565b6040805193845260208401929092529082015260600161016a565b61017b610295366004611117565b6001600160a01b031660009081526008602052604090205490565b6102c36102be366004611117565b6107c1565b60405161016a9190611250565b6102d86108f0565b60405161016a9291906112ef565b61017b6102f4366004611192565b610d5b565b61019c610307366004611117565b610d72565b61019c61031a3660046110ed565b610db0565b61019c61032d366004611117565b610df1565b6008602052816000526040600020818154811061034e57600080fd5b6000918252602090912060069091020180546005909101546001600160a01b039091169250905082565b610380610e1b565b600180546001600160a01b0319166001600160a01b0392909216919091179055565b6103aa610e1b565b6000805b60058110156103ed578281600581106103c9576103c961130a565b6020020135826103d99190611336565b9150806103e581611349565b9150506103ae565b50806103e8146104445760405162461bcd60e51b815260206004820152601b60248201527f44726f70207261746573206d7573742073756d20746f2031303030000000000060448201526064015b60405180910390fd5b6104516003836005610f7c565b507f96cfde9f8aec65148964c6ebbf9c6effcc7d28b14da7de886b67c879478b2a20826040516104819190611362565b60405180910390a15050565b610495610e1b565b61049f6000610e48565b565b6104a9610fba565b6040805160a08101918290529060039060059082845b8154815260200190600101908083116104bf575050505050905090565b6104e4610e1b565b6002546040516370a0823160e01b81523060048201526000916001600160a01b0316906370a0823190602401602060405180830381865afa15801561052d573d6000803e3d6000fd5b505050506040513d601f19601f820116820180604052508101906105519190611371565b60025460405163a9059cbb60e01b81526001600160a01b0385811660048301526024820184905292935091169063a9059cbb906044015b6020604051808303816000875af11580156105a7573d6000803e3d6000fd5b505050506040513d601f19601f820116820180604052508101906105cb919061138a565b61060c5760405162461bcd60e51b81526020600482015260126024820152711353481d1c985b9cd9995c8819985a5b195960721b604482015260640161043b565b5050565b610618610fd8565b610620610fd8565b60005b60038110156107255760408051602081018690529081018290524260608201526000906103e8906080016040516020818303038152906040528051906020012060001c61067091906113ac565b90506000805b600581101561070f57600381600581106106925761069261130a565b015461069e9083611336565b9150818310156106fd578060048111156106ba576106ba6111ab565b8585600381106106cc576106cc61130a565b602002019060048111156106e2576106e26111ab565b908160048111156106f5576106f56111ab565b90525061070f565b8061070781611349565b915050610676565b505050808061071d90611349565b915050610623565b5092915050565b6000806000600954678ac7230489e8000060095461074a91906113ce565b6002546040516370a0823160e01b81523060048201526001600160a01b03909116906370a0823190602401602060405180830381865afa158015610792573d6000803e3d6000fd5b505050506040513d601f19601f820116820180604052508101906107b69190611371565b925092509250909192565b6001600160a01b0381166000908152600860209081526040808320805482518185028101850190935280835260609492939192909184015b828210156108e5576000848152602090819020604080516080810182526006860290920180546001600160a01b0316835281516060810190925291928301906001830160038282826020028201915b815481526020019060010190808311610848575050509183525050604080516060810191829052602090920191906004840190600390826000855b82829054906101000a900460ff1660048111156108a2576108a26111ab565b81526020600192830181810494850194909303909202910180841161088357905050505050508152602001600582015481525050815260200190600101906107f9565b505050509050919050565b6108f8610fd8565b610900610fd8565b6002546040516370a0823160e01b8152336004820152678ac7230489e80000916001600160a01b0316906370a0823190602401602060405180830381865afa158015610950573d6000803e3d6000fd5b505050506040513d601f19601f820116820180604052508101906109749190611371565b10156109c25760405162461bcd60e51b815260206004820152601760248201527f496e73756666696369656e74204d4d2062616c616e6365000000000000000000604482015260640161043b565b6002546040516323b872dd60e01b8152336004820152306024820152678ac7230489e8000060448201526001600160a01b03909116906323b872dd906064016020604051808303816000875af1158015610a20573d6000803e3d6000fd5b505050506040513d601f19601f82011682018060405250810190610a44919061138a565b610a855760405162461bcd60e51b81526020600482015260126024820152711353481d1c985b9cd9995c8819985a5b195960721b604482015260640161043b565b60005b6003811015610aea57610a9a81610e98565b828260038110610aac57610aac61130a565b60200201906004811115610ac257610ac26111ab565b90816004811115610ad557610ad56111ab565b90525080610ae281611349565b915050610a88565b50604080516003808252608082019092526000916020820160608036833701905050905060005b6003811015610b8457828160038110610b2c57610b2c61130a565b6020020151828281518110610b4357610b4361130a565b60200260200101906004811115610b5c57610b5c6111ab565b90816004811115610b6f57610b6f6111ab565b90525080610b7c81611349565b915050610b11565b50600154604051632ba74ed960e01b81526000916001600160a01b031690632ba74ed990610bb890339086906004016113fb565b6000604051808303816000875af1158015610bd7573d6000803e3d6000fd5b505050506040513d6000823e601f3d908101601f19168201604052610bff9190810190611456565b905060005b6003811015610c5057818181518110610c1f57610c1f61130a565b6020026020010151858260038110610c3957610c3961130a565b602002015280610c4881611349565b915050610c04565b506040805160808101825233808252602080830188815283850188905242606085015260009283526008825293822080546001808201835591845291909220835160069092020180546001600160a01b0319166001600160a01b039092169190911781559251919283929091610ccb91908301906003610ff6565b506040820151610ce19060048301906003611024565b506060919091015160059091015560098054906000610cff83611349565b9190505550600954336001600160a01b03167f1cf628e585b72fbc4af345bc95c6349d4782bcef5e6ac671567782ab7fb3afe28787678ac7230489e80000604051610d4c93929190611514565b60405180910390a35050509091565b60038160058110610d6b57600080fd5b0154905081565b610d7a610e1b565b6001600160a01b038116610da457604051631e4fbdf760e01b81526000600482015260240161043b565b610dad81610e48565b50565b610db8610e1b565b60025460405163a9059cbb60e01b81526001600160a01b038481166004830152602482018490529091169063a9059cbb90604401610588565b610df9610e1b565b600280546001600160a01b0319166001600160a01b0392909216919091179055565b6000546001600160a01b0316331461049f5760405163118cdaa760e01b815233600482015260240161043b565b600080546001600160a01b038381166001600160a01b0319831681178455604051919092169283917f8be0079c531659141344cd1fd0a4f28419497f9722a3daafe3b4186f6b6457e09190a35050565b6000806103e842443386600954604051602001610ee9959493929190948552602085019390935260609190911b6bffffffffffffffffffffffff191660408401526054830152607482015260940190565b6040516020818303038152906040528051906020012060001c610f0c91906113ac565b90506000805b6005811015610f715760038160058110610f2e57610f2e61130a565b0154610f3a9083611336565b915081831015610f5f57806004811115610f5657610f566111ab565b95945050505050565b80610f6981611349565b915050610f12565b506002949350505050565b8260058101928215610faa579160200282015b82811115610faa578235825591602001919060010190610f8f565b50610fb69291506110bc565b5090565b6040518060a001604052806005906020820280368337509192915050565b60405180606001604052806003906020820280368337509192915050565b8260038101928215610faa579160200282015b82811115610faa578251825591602001919060010190611009565b600183019183908215610faa5791602002820160005b8382111561108657835183826101000a81548160ff02191690836004811115611065576110656111ab565b0217905550926020019260010160208160000104928301926001030261103a565b80156110b35782816101000a81549060ff0219169055600101602081600001049283019260010302611086565b5050610fb69291505b5b80821115610fb657600081556001016110bd565b80356001600160a01b03811681146110e857600080fd5b919050565b6000806040838503121561110057600080fd5b611109836110d1565b946020939093013593505050565b60006020828403121561112957600080fd5b611132826110d1565b9392505050565b600060a0828403121561114b57600080fd5b8260a08301111561115b57600080fd5b50919050565b60a08101818360005b600581101561118957815183526020928301929091019060010161116a565b50505092915050565b6000602082840312156111a457600080fd5b5035919050565b634e487b7160e01b600052602160045260246000fd5b6000600582106111e157634e487b7160e01b600052602160045260246000fd5b50815260200190565b8060005b6003811015611213576112028483516111c1565b9350602091909101906001016111ee565b50505050565b6060810161122782846111ea565b92915050565b8060005b6003811015611213578151845260209384019390910190600101611231565b60208082528251828201819052600091906040908185019086840185805b838110156112e157825180516001600160a01b03168652878101516112958988018261122d565b508681015160808701845b60038110156112c2576112b48284516111c1565b928b019291506001016112a0565b5050506060015160e0860152610100909401939186019160010161126e565b509298975050505050505050565b60c081016112fd828561122d565b61113260608301846111ea565b634e487b7160e01b600052603260045260246000fd5b634e487b7160e01b600052601160045260246000fd5b8082018082111561122757611227611320565b60006001820161135b5761135b611320565b5060010190565b60a08181019083833792915050565b60006020828403121561138357600080fd5b5051919050565b60006020828403121561139c57600080fd5b8151801515811461113257600080fd5b6000826113c957634e487b7160e01b600052601260045260246000fd5b500690565b808202811582820484141761122757611227611320565b634e487b7160e01b600052604160045260246000fd5b6001600160a01b038316815260406020808301829052835191830182905260009184820191906060850190845b818110156114495761143b8386516111c1565b948401949250600101611428565b5090979650505050505050565b6000602080838503121561146957600080fd5b825167ffffffffffffffff8082111561148157600080fd5b818501915085601f83011261149557600080fd5b8151818111156114a7576114a76113e5565b8060051b604051601f19603f830116810181811085821117156114cc576114cc6113e5565b6040529182528482019250838101850191888311156114ea57600080fd5b938501935b82851015611508578451845293850193928501926114ef565b98975050505050505050565b60e08101611522828661122d565b61152f60608301856111ea565b8260c083015294935050505056fea2646970667358221220c1139f3699b12f3343648c5739bcde039a4d5a6f13875c0d82b7d80049e95eb964736f6c63430008140033",
  "devdoc": {
    "errors": {
      "OwnableInvalidOwner(address)": [
        {
          "details": "The owner is not a valid owner account. (eg. `address(0)`)"
        }
      ],
      "OwnableUnauthorizedAccount(address)": [
        {
          "details": "The caller account is not authorized to perform an operation."
        }
      ]
    },
    "kind": "dev",
    "methods": {
      "owner()": {
        "details": "Returns the address of the current owner."
      },
      "renounceOwnership()": {
        "details": "Leaves the contract without owner. It will not be possible to call `onlyOwner` functions. Can only be called by the current owner. NOTE: Renouncing ownership will leave the contract without an owner, thereby disabling any functionality that is only available to the owner."
      },
      "transferOwnership(address)": {
        "details": "Transfers ownership of the contract to a new account (`newOwner`). Can only be called by the current owner."
      }
    },
    "version": 1
  },
  "userdoc": {
    "kind": "user",
    "methods": {},
    "version": 1
  },
  "storageLayout": {
    "storage": [
      {
        "astId": 8,
        "contract": "contracts/GachaSystem.sol:GachaSystem",
        "label": "_owner",
        "offset": 0,
        "slot": "0",
        "type": "t_address"
      },
      {
        "astId": 3509,
        "contract": "contracts/GachaSystem.sol:GachaSystem",
        "label": "minerNFT",
        "offset": 0,
        "slot": "1",
        "type": "t_contract(MinerNFT)5212"
      },
      {
        "astId": 3512,
        "contract": "contracts/GachaSystem.sol:GachaSystem",
        "label": "mmToken",
        "offset": 0,
        "slot": "2",
        "type": "t_contract(IERC20)362"
      },
      {
        "astId": 3528,
        "contract": "contracts/GachaSystem.sol:GachaSystem",
        "label": "dropRates",
        "offset": 0,
        "slot": "3",
        "type": "t_array(t_uint256)5_storage"
      },
      {
        "astId": 3548,
        "contract": "contracts/GachaSystem.sol:GachaSystem",
        "label": "userPackHistory",
        "offset": 0,
        "slot": "8",
        "type": "t_mapping(t_address,t_array(t_struct(GachaPack)3542_storage)dyn_storage)"
      },
      {
        "astId": 3550,
        "contract": "contracts/GachaSystem.sol:GachaSystem",
        "label": "totalPacksSold",
        "offset": 0,
        "slot": "9",
        "type": "t_uint256"
      }
    ],
    "types": {
      "t_address": {
        "encoding": "inplace",
        "label": "address",
        "numberOfBytes": "20"
      },
      "t_array(t_enum(MinerType)4602)3_storage": {
        "base": "t_enum(MinerType)4602",
        "encoding": "inplace",
        "label": "enum MinerNFT.MinerType[3]",
        "numberOfBytes": "32"
      },
      "t_array(t_struct(GachaPack)3542_storage)dyn_storage": {
        "base": "t_struct(GachaPack)3542_storage",
        "encoding": "dynamic_array",
        "label": "struct GachaSystem.GachaPack[]",
        "numberOfBytes": "32"
      },
      "t_array(t_uint256)3_storage": {
        "base": "t_uint256",
        "encoding": "inplace",
        "label": "uint256[3]",
        "numberOfBytes": "96"
      },
      "t_array(t_uint256)5_storage": {
        "base": "t_uint256",
        "encoding": "inplace",
        "label": "uint256[5]",
        "numberOfBytes": "160"
      },
      "t_contract(IERC20)362": {
        "encoding": "inplace",
        "label": "contract IERC20",
        "numberOfBytes": "20"
      },
      "t_contract(MinerNFT)5212": {
        "encoding": "inplace",
        "label": "contract MinerNFT",
        "numberOfBytes": "20"
      },
      "t_enum(MinerType)4602": {
        "encoding": "inplace",
        "label": "enum MinerNFT.MinerType",
        "numberOfBytes": "1"
      },
      "t_mapping(t_address,t_array(t_struct(GachaPack)3542_storage)dyn_storage)": {
        "encoding": "mapping",
        "key": "t_address",
        "label": "mapping(address => struct GachaSystem.GachaPack[])",
        "numberOfBytes": "32",
        "value": "t_array(t_struct(GachaPack)3542_storage)dyn_storage"
      },
      "t_struct(GachaPack)3542_storage": {
        "encoding": "inplace",
        "label": "struct GachaSystem.GachaPack",
        "members": [
          {
            "astId": 3530,
            "contract": "contracts/GachaSystem.sol:GachaSystem",
            "label": "buyer",
            "offset": 0,
            "slot": "0",
            "type": "t_address"
          },
          {
            "astId": 3534,
            "contract": "contracts/GachaSystem.sol:GachaSystem",
            "label": "tokenIds",
            "offset": 0,
            "slot": "1",
            "type": "t_array(t_uint256)3_storage"
          },
          {
            "astId": 3539,
            "contract": "contracts/GachaSystem.sol:GachaSystem",
            "label": "minerTypes",
            "offset": 0,
            "slot": "4",
            "type": "t_array(t_enum(MinerType)4602)3_storage"
          },
          {
            "astId": 3541,
            "contract": "contracts/GachaSystem.sol:GachaSystem",
            "label": "timestamp",
            "offset": 0,
            "slot": "5",
            "type": "t_uint256"
          }
        ],
        "numberOfBytes": "192"
      },
      "t_uint256": {
        "encoding": "inplace",
        "label": "uint256",
        "numberOfBytes": "32"
      }
    }
  }
}