{
  "address": "0xE21001E072472642946B3Cc2Daa71f602EF92234",
  "abi": [
    {
      "inputs": [],
      "stateMutability": "nonpayable",
      "type": "constructor"
    },
    {
      "inputs": [],
      "name": "ERC721EnumerableForbiddenBatchMint",
      "type": "error"
    },
    {
      "inputs": [
        {
          "internalType": "address",
          "name": "sender",
          "type": "address"
        },
        {
          "internalType": "uint256",
          "name": "tokenId",
          "type": "uint256"
        },
        {
          "internalType": "address",
          "name": "owner",
          "type": "address"
        }
      ],
      "name": "ERC721IncorrectOwner",
      "type": "error"
    },
    {
      "inputs": [
        {
          "internalType": "address",
          "name": "operator",
          "type": "address"
        },
        {
          "internalType": "uint256",
          "name": "tokenId",
          "type": "uint256"
        }
      ],
      "name": "ERC721InsufficientApproval",
      "type": "error"
    },
    {
      "inputs": [
        {
          "internalType": "address",
          "name": "approver",
          "type": "address"
        }
      ],
      "name": "ERC721InvalidApprover",
      "type": "error"
    },
    {
      "inputs": [
        {
          "internalType": "address",
          "name": "operator",
          "type": "address"
        }
      ],
      "name": "ERC721InvalidOperator",
      "type": "error"
    },
    {
      "inputs": [
        {
          "internalType": "address",
          "name": "owner",
          "type": "address"
        }
      ],
      "name": "ERC721InvalidOwner",
      "type": "error"
    },
    {
      "inputs": [
        {
          "internalType": "address",
          "name": "receiver",
          "type": "address"
        }
      ],
      "name": "ERC721InvalidReceiver",
      "type": "error"
    },
    {
      "inputs": [
        {
          "internalType": "address",
          "name": "sender",
          "type": "address"
        }
      ],
      "name": "ERC721InvalidSender",
      "type": "error"
    },
    {
      "inputs": [
        {
          "internalType": "uint256",
          "name": "tokenId",
          "type": "uint256"
        }
      ],
      "name": "ERC721NonexistentToken",
      "type": "error"
    },
    {
      "inputs": [
        {
          "internalType": "address",
          "name": "owner",
          "type": "address"
        },
        {
          "internalType": "uint256",
          "name": "index",
          "type": "uint256"
        }
      ],
      "name": "ERC721OutOfBoundsIndex",
      "type": "error"
    },
    {
      "inputs": [
        {
          "internalType": "address",
          "name": "owner",
          "type": "address"
        }
      ],
      "name": "OwnableInvalidOwner",
      "type": "error"
    },
    {
      "inputs": [
        {
          "internalType": "address",
          "name": "account",
          "type": "address"
        }
      ],
      "name": "OwnableUnauthorizedAccount",
      "type": "error"
    },
    {
      "anonymous": false,
      "inputs": [
        {
          "indexed": true,
          "internalType": "address",
          "name": "owner",
          "type": "address"
        },
        {
          "indexed": true,
          "internalType": "address",
          "name": "approved",
          "type": "address"
        },
        {
          "indexed": true,
          "internalType": "uint256",
          "name": "tokenId",
          "type": "uint256"
        }
      ],
      "name": "Approval",
      "type": "event"
    },
    {
      "anonymous": false,
      "inputs": [
        {
          "indexed": true,
          "internalType": "address",
          "name": "owner",
          "type": "address"
        },
        {
          "indexed": true,
          "internalType": "address",
          "name": "operator",
          "type": "address"
        },
        {
          "indexed": false,
          "internalType": "bool",
          "name": "approved",
          "type": "bool"
        }
      ],
      "name": "ApprovalForAll",
      "type": "event"
    },
    {
      "anonymous": false,
      "inputs": [
        {
          "indexed": true,
          "internalType": "address",
          "name": "to",
          "type": "address"
        },
        {
          "indexed": true,
          "internalType": "uint256",
          "name": "tokenId",
          "type": "uint256"
        },
        {
          "indexed": false,
          "internalType": "enum MinerNFT.MinerType",
          "name": "minerType",
          "type": "uint8"
        },
        {
          "indexed": false,
          "internalType": "string",
          "name": "name",
          "type": "string"
        }
      ],
      "name": "MinerMinted",
      "type": "event"
    },
    {
      "anonymous": false,
      "inputs": [
        {
          "indexed": true,
          "internalType": "address",
          "name": "minter",
          "type": "address"
        },
        {
          "indexed": false,
          "internalType": "bool",
          "name": "authorized",
          "type": "bool"
        }
      ],
      "name": "MinterAuthorized",
      "type": "event"
    },
    {
      "anonymous": false,
      "inputs": [
        {
          "indexed": true,
          "internalType": "address",
          "name": "previousOwner",
          "type": "address"
        },
        {
          "indexed": true,
          "internalType": "address",
          "name": "newOwner",
          "type": "address"
        }
      ],
      "name": "OwnershipTransferred",
      "type": "event"
    },
    {
      "anonymous": false,
      "inputs": [
        {
          "indexed": true,
          "internalType": "address",
          "name": "from",
          "type": "address"
        },
        {
          "indexed": true,
          "internalType": "address",
          "name": "to",
          "type": "address"
        },
        {
          "indexed": true,
          "internalType": "uint256",
          "name": "tokenId",
          "type": "uint256"
        }
      ],
      "name": "Transfer",
      "type": "event"
    },
    {
      "inputs": [
        {
          "internalType": "address",
          "name": "to",
          "type": "address"
        },
        {
          "internalType": "uint256",
          "name": "tokenId",
          "type": "uint256"
        }
      ],
      "name": "approve",
      "outputs": [],
      "stateMutability": "nonpayable",
      "type": "function"
    },
    {
      "inputs": [
        {
          "internalType": "address",
          "name": "",
          "type": "address"
        }
      ],
      "name": "authorizedMinters",
      "outputs": [
        {
          "internalType": "bool",
          "name": "",
          "type": "bool"
        }
      ],
      "stateMutability": "view",
      "type": "function"
    },
    {
      "inputs": [
        {
          "internalType": "address",
          "name": "owner",
          "type": "address"
        }
      ],
      "name": "balanceOf",
      "outputs": [
        {
          "internalType": "uint256",
          "name": "",
          "type": "uint256"
        }
      ],
      "stateMutability": "view",
      "type": "function"
    },
    {
      "inputs": [
        {
          "internalType": "address",
          "name": "to",
          "type": "address"
        },
        {
          "internalType": "enum MinerNFT.MinerType[]",
          "name": "minerTypes",
          "type": "uint8[]"
        }
      ],
      "name": "batchMintMiners",
      "outputs": [
        {
          "internalType": "uint256[]",
          "name": "",
          "type": "uint256[]"
        }
      ],
      "stateMutability": "nonpayable",
      "type": "function"
    },
    {
      "inputs": [
        {
          "internalType": "uint256",
          "name": "tokenId",
          "type": "uint256"
        },
        {
          "internalType": "enum GameManager.PatternType",
          "name": "currentPattern",
          "type": "uint8"
        }
      ],
      "name": "calculateEffectiveSuccessRate",
      "outputs": [
        {
          "internalType": "uint256",
          "name": "",
          "type": "uint256"
        }
      ],
      "stateMutability": "view",
      "type": "function"
    },
    {
      "inputs": [
        {
          "internalType": "uint256",
          "name": "tokenId",
          "type": "uint256"
        }
      ],
      "name": "getApproved",
      "outputs": [
        {
          "internalType": "address",
          "name": "",
          "type": "address"
        }
      ],
      "stateMutability": "view",
      "type": "function"
    },
    {
      "inputs": [
        {
          "internalType": "uint256",
          "name": "tokenId",
          "type": "uint256"
        }
      ],
      "name": "getMinerStats",
      "outputs": [
        {
          "components": [
            {
              "internalType": "enum MinerNFT.MinerType",
              "name": "minerType",
              "type": "uint8"
            },
            {
              "internalType": "uint256",
              "name": "minRange",
              "type": "uint256"
            },
            {
              "internalType": "uint256",
              "name": "maxRange",
              "type": "uint256"
            },
            {
              "internalType": "enum GameManager.PatternType",
              "name": "specialization",
              "type": "uint8"
            },
            {
              "internalType": "uint256",
              "name": "baseSuccessRate",
              "type": "uint256"
            },
            {
              "internalType": "string",
              "name": "name",
              "type": "string"
            }
          ],
          "internalType": "struct MinerNFT.MinerStats",
          "name": "",
          "type": "tuple"
        }
      ],
      "stateMutability": "view",
      "type": "function"
    },
    {
      "inputs": [
        {
          "internalType": "enum MinerNFT.MinerType",
          "name": "minerType",
          "type": "uint8"
        }
      ],
      "name": "getMinerTypeStats",
      "outputs": [
        {
          "components": [
            {
              "internalType": "enum MinerNFT.MinerType",
              "name": "minerType",
              "type": "uint8"
            },
            {
              "internalType": "uint256",
              "name": "minRange",
              "type": "uint256"
            },
            {
              "internalType": "uint256",
              "name": "maxRange",
              "type": "uint256"
            },
            {
              "internalType": "enum GameManager.PatternType",
              "name": "specialization",
              "type": "uint8"
            },
            {
              "internalType": "uint256",
              "name": "baseSuccessRate",
              "type": "uint256"
            },
            {
              "internalType": "string",
              "name": "name",
              "type": "string"
            }
          ],
          "internalType": "struct MinerNFT.MinerStats",
          "name": "",
          "type": "tuple"
        }
      ],
      "stateMutability": "view",
      "type": "function"
    },
    {
      "inputs": [
        {
          "internalType": "address",
          "name": "owner",
          "type": "address"
        }
      ],
      "name": "getOwnedMiners",
      "outputs": [
        {
          "internalType": "uint256[]",
          "name": "",
          "type": "uint256[]"
        }
      ],
      "stateMutability": "view",
      "type": "function"
    },
    {
      "inputs": [
        {
          "internalType": "address",
          "name": "owner",
          "type": "address"
        },
        {
          "internalType": "address",
          "name": "operator",
          "type": "address"
        }
      ],
      "name": "isApprovedForAll",
      "outputs": [
        {
          "internalType": "bool",
          "name": "",
          "type": "bool"
        }
      ],
      "stateMutability": "view",
      "type": "function"
    },
    {
      "inputs": [
        {
          "internalType": "enum MinerNFT.MinerType",
          "name": "",
          "type": "uint8"
        }
      ],
      "name": "minerConfig",
      "outputs": [
        {
          "internalType": "enum MinerNFT.MinerType",
          "name": "minerType",
          "type": "uint8"
        },
        {
          "internalType": "uint256",
          "name": "minRange",
          "type": "uint256"
        },
        {
          "internalType": "uint256",
          "name": "maxRange",
          "type": "uint256"
        },
        {
          "internalType": "enum GameManager.PatternType",
          "name": "specialization",
          "type": "uint8"
        },
        {
          "internalType": "uint256",
          "name": "baseSuccessRate",
          "type": "uint256"
        },
        {
          "internalType": "string",
          "name": "name",
          "type": "string"
        }
      ],
      "stateMutability": "view",
      "type": "function"
    },
    {
      "inputs": [
        {
          "internalType": "uint256",
          "name": "",
          "type": "uint256"
        }
      ],
      "name": "minerStats",
      "outputs": [
        {
          "internalType": "enum MinerNFT.MinerType",
          "name": "minerType",
          "type": "uint8"
        },
        {
          "internalType": "uint256",
          "name": "minRange",
          "type": "uint256"
        },
        {
          "internalType": "uint256",
          "name": "maxRange",
          "type": "uint256"
        },
        {
          "internalType": "enum GameManager.PatternType",
          "name": "specialization",
          "type": "uint8"
        },
        {
          "internalType": "uint256",
          "name": "baseSuccessRate",
          "type": "uint256"
        },
        {
          "internalType": "string",
          "name": "name",
          "type": "string"
        }
      ],
      "stateMutability": "view",
      "type": "function"
    },
    {
      "inputs": [
        {
          "internalType": "address",
          "name": "to",
          "type": "address"
        },
        {
          "internalType": "enum MinerNFT.MinerType",
          "name": "minerType",
          "type": "uint8"
        }
      ],
      "name": "mintMiner",
      "outputs": [
        {
          "internalType": "uint256",
          "name": "",
          "type": "uint256"
        }
      ],
      "stateMutability": "nonpayable",
      "type": "function"
    },
    {
      "inputs": [],
      "name": "name",
      "outputs": [
        {
          "internalType": "string",
          "name": "",
          "type": "string"
        }
      ],
      "stateMutability": "view",
      "type": "function"
    },
    {
      "inputs": [],
      "name": "owner",
      "outputs": [
        {
          "internalType": "address",
          "name": "",
          "type": "address"
        }
      ],
      "stateMutability": "view",
      "type": "function"
    },
    {
      "inputs": [
        {
          "internalType": "uint256",
          "name": "tokenId",
          "type": "uint256"
        }
      ],
      "name": "ownerOf",
      "outputs": [
        {
          "internalType": "address",
          "name": "",
          "type": "address"
        }
      ],
      "stateMutability": "view",
      "type": "function"
    },
    {
      "inputs": [],
      "name": "renounceOwnership",
      "outputs": [],
      "stateMutability": "nonpayable",
      "type": "function"
    },
    {
      "inputs": [
        {
          "internalType": "address",
          "name": "from",
          "type": "address"
        },
        {
          "internalType": "address",
          "name": "to",
          "type": "address"
        },
        {
          "internalType": "uint256",
          "name": "tokenId",
          "type": "uint256"
        }
      ],
      "name": "safeTransferFrom",
      "outputs": [],
      "stateMutability": "nonpayable",
      "type": "function"
    },
    {
      "inputs": [
        {
          "internalType": "address",
          "name": "from",
          "type": "address"
        },
        {
          "internalType": "address",
          "name": "to",
          "type": "address"
        },
        {
          "internalType": "uint256",
          "name": "tokenId",
          "type": "uint256"
        },
        {
          "internalType": "bytes",
          "name": "data",
          "type": "bytes"
        }
      ],
      "name": "safeTransferFrom",
      "outputs": [],
      "stateMutability": "nonpayable",
      "type": "function"
    },
    {
      "inputs": [
        {
          "internalType": "address",
          "name": "operator",
          "type": "address"
        },
        {
          "internalType": "bool",
          "name": "approved",
          "type": "bool"
        }
      ],
      "name": "setApprovalForAll",
      "outputs": [],
      "stateMutability": "nonpayable",
      "type": "function"
    },
    {
      "inputs": [
        {
          "internalType": "address",
          "name": "minter",
          "type": "address"
        },
        {
          "internalType": "bool",
          "name": "authorized",
          "type": "bool"
        }
      ],
      "name": "setMinter",
      "outputs": [],
      "stateMutability": "nonpayable",
      "type": "function"
    },
    {
      "inputs": [
        {
          "internalType": "address[]",
          "name": "minters",
          "type": "address[]"
        },
        {
          "internalType": "bool",
          "name": "authorized",
          "type": "bool"
        }
      ],
      "name": "setMultipleMinters",
      "outputs": [],
      "stateMutability": "nonpayable",
      "type": "function"
    },
    {
      "inputs": [
        {
          "internalType": "bytes4",
          "name": "interfaceId",
          "type": "bytes4"
        }
      ],
      "name": "supportsInterface",
      "outputs": [
        {
          "internalType": "bool",
          "name": "",
          "type": "bool"
        }
      ],
      "stateMutability": "view",
      "type": "function"
    },
    {
      "inputs": [],
      "name": "symbol",
      "outputs": [
        {
          "internalType": "string",
          "name": "",
          "type": "string"
        }
      ],
      "stateMutability": "view",
      "type": "function"
    },
    {
      "inputs": [
        {
          "internalType": "uint256",
          "name": "index",
          "type": "uint256"
        }
      ],
      "name": "tokenByIndex",
      "outputs": [
        {
          "internalType": "uint256",
          "name": "",
          "type": "uint256"
        }
      ],
      "stateMutability": "view",
      "type": "function"
    },
    {
      "inputs": [
        {
          "internalType": "address",
          "name": "owner",
          "type": "address"
        },
        {
          "internalType": "uint256",
          "name": "index",
          "type": "uint256"
        }
      ],
      "name": "tokenOfOwnerByIndex",
      "outputs": [
        {
          "internalType": "uint256",
          "name": "",
          "type": "uint256"
        }
      ],
      "stateMutability": "view",
      "type": "function"
    },
    {
      "inputs": [
        {
          "internalType": "uint256",
          "name": "tokenId",
          "type": "uint256"
        }
      ],
      "name": "tokenURI",
      "outputs": [
        {
          "internalType": "string",
          "name": "",
          "type": "string"
        }
      ],
      "stateMutability": "view",
      "type": "function"
    },
    {
      "inputs": [],
      "name": "totalSupply",
      "outputs": [
        {
          "internalType": "uint256",
          "name": "",
          "type": "uint256"
        }
      ],
      "stateMutability": "view",
      "type": "function"
    },
    {
      "inputs": [
        {
          "internalType": "address",
          "name": "from",
          "type": "address"
        },
        {
          "internalType": "address",
          "name": "to",
          "type": "address"
        },
        {
          "internalType": "uint256",
          "name": "tokenId",
          "type": "uint256"
        }
      ],
      "name": "transferFrom",
      "outputs": [],
      "stateMutability": "nonpayable",
      "type": "function"
    },
    {
      "inputs": [
        {
          "internalType": "address",
          "name": "newOwner",
          "type": "address"
        }
      ],
      "name": "transferOwnership",
      "outputs": [],
      "stateMutability": "nonpayable",
      "type": "function"
    }
  ],
  "transactionHash": "0xa0f124f0222d1a00bb3df53f2df7f35e5963a7e1c048f9199c5e6d168792ef12",
  "args": [],
  "numDeployments": 4,
  "solcInputHash": "8f10f76b15ee839fe87cae778b661d96",
  "bytecode": "0x60806040526001600b553480156200001657600080fd5b50336040518060400160405280600d81526020016c135bdb985b5a5b995c88139195609a1b8152506040518060400160405280600581526020016426a4a722a960d91b81525081600090816200006d919062000780565b5060016200007c828262000780565b5050506001600160a01b038116620000ae57604051631e4fbdf760e01b81526000600482015260240160405180910390fd5b620000b981620000ca565b50620000c46200011c565b62000862565b600a80546001600160a01b038381166001600160a01b0319831681179093556040519116919082907f8be0079c531659141344cd1fd0a4f28419497f9722a3daafe3b4186f6b6457e090600090a35050565b6040805160c081019091528060008152619c40602082015261ea60604082015260600160008152602001600f81526020016040518060400160405280600b81526020016a22bb32b7213630b9ba32b960a91b815250815250600d60008060048111156200018d576200018d6200084c565b6004811115620001a157620001a16200084c565b8152602081019190915260400160002081518154829060ff19166001836004811115620001d257620001d26200084c565b0217905550602082015181600101556040820151816002015560608201518160030160006101000a81548160ff021916908360048111156200021857620002186200084c565b02179055506080820151600482015560a082015160058201906200023d908262000780565b50506040805160c081019091529050806001815262012110602082015262013880604082015260600160028152602001600c81526020016040518060400160405280600b81526020016a283934b6b2a9b734b832b960a91b815250815250600d600060016004811115620002b557620002b56200084c565b6004811115620002c957620002c96200084c565b8152602081019190915260400160002081518154829060ff19166001836004811115620002fa57620002fa6200084c565b0217905550602082015181600101556040820151816002015560608201518160030160006101000a81548160ff021916908360048111156200034057620003406200084c565b02179055506080820151600482015560a0820151600582019062000365908262000780565b50506040805160c081019091529050806002815261c350602082015262011170604082015260600160008152602001600881526020016040518060400160405280600c81526020016b2130b630b731b2b229b1b0b760a11b815250815250600d600060026004811115620003dd57620003dd6200084c565b6004811115620003f157620003f16200084c565b8152602081019190915260400160002081518154829060ff191660018360048111156200042257620004226200084c565b0217905550602082015181600101556040820151816002015560608201518160030160006101000a81548160ff021916908360048111156200046857620004686200084c565b02179055506080820151600482015560a082015160058201906200048d908262000780565b50506040805160c081019091529050806003815261ea60602082015262011170604082015260600160038152602001600c8152602001604051806040016040528060088152602001672834a9b734b832b960c11b815250815250600d6000600360048111156200050157620005016200084c565b60048111156200051557620005156200084c565b8152602081019190915260400160002081518154829060ff191660018360048111156200054657620005466200084c565b0217905550602082015181600101556040820151816002015560608201518160030160006101000a81548160ff021916908360048111156200058c576200058c6200084c565b02179055506080820151600482015560a08201516005820190620005b1908262000780565b50506040805160c0810190915290508060048152617530602082015261c350604082015260600160048152602001600e81526020016040518060400160405280600c81526020016b29b8bab0b932a9b2b2b5b2b960a11b815250815250600d60006004808111156200062757620006276200084c565b60048111156200063b576200063b6200084c565b8152602081019190915260400160002081518154829060ff191660018360048111156200066c576200066c6200084c565b0217905550602082015181600101556040820151816002015560608201518160030160006101000a81548160ff02191690836004811115620006b257620006b26200084c565b02179055506080820151600482015560a08201516005820190620006d7908262000780565b505050565b634e487b7160e01b600052604160045260246000fd5b600181811c908216806200070757607f821691505b6020821081036200072857634e487b7160e01b600052602260045260246000fd5b50919050565b601f821115620006d757600081815260208120601f850160051c81016020861015620007575750805b601f850160051c820191505b81811015620007785782815560010162000763565b505050505050565b81516001600160401b038111156200079c576200079c620006dc565b620007b481620007ad8454620006f2565b846200072e565b602080601f831160018114620007ec5760008415620007d35750858301515b600019600386901b1c1916600185901b17855562000778565b600085815260208120601f198616915b828110156200081d57888601518255948401946001909101908401620007fc565b50858210156200083c5787850151600019600388901b60f8161c191681555b5050505050600190811b01905550565b634e487b7160e01b600052602160045260246000fd5b61299180620008726000396000f3fe608060405234801561001057600080fd5b50600436106101da5760003560e01c8063715018a611610104578063b88d4fde116100a2578063f2fde38b11610071578063f2fde38b14610414578063fe304d1f14610427578063fe52d5511461043a578063fee42f921461045a57600080fd5b8063b88d4fde146103c8578063c87b56dd146103db578063cf456ae7146103ee578063e985e9c51461040157600080fd5b806395d89b41116100de57806395d89b41146103775780639a9fafcb1461037f578063a22cb46514610392578063aa2fe91b146103a557600080fd5b8063715018a61461034b5780638da5cb5b14610353578063937a79e91461036457600080fd5b806323b872dd1161017c57806342842e0e1161014b57806342842e0e146102ff5780634f6ccce7146103125780636352211e1461032557806370a082311461033857600080fd5b806323b872dd146102a6578063270bdbc2146102b95780632ba74ed9146102cc5780632f745c59146102ec57600080fd5b8063095ea7b3116101b8578063095ea7b31461024757806318160ddd1461025c5780631d3e3e8d1461026e578063235856ea1461028157600080fd5b806301ffc9a7146101df57806306fdde0314610207578063081812fc1461021c575b600080fd5b6101f26101ed366004612135565b61046d565b60405190151581526020015b60405180910390f35b61020f61047e565b6040516101fe91906121a9565b61022f61022a3660046121bc565b610510565b6040516001600160a01b0390911681526020016101fe565b61025a6102553660046121f1565b610539565b005b6008545b6040519081526020016101fe565b61025a61027c366004612277565b610548565b61029461028f3660046121bc565b610632565b6040516101fe969594939291906122ff565b61025a6102b436600461234e565b6106f9565b6102606102c7366004612397565b610783565b6102df6102da3660046123ce565b610a50565b6040516101fe9190612421565b6102606102fa3660046121f1565b610df3565b61025a61030d36600461234e565b610e58565b6102606103203660046121bc565b610e78565b61022f6103333660046121bc565b610ed1565b610260610346366004612465565b610edc565b61025a610f24565b600a546001600160a01b031661022f565b610260610372366004612480565b610f38565b61020f61111c565b6102df61038d366004612465565b61112b565b61025a6103a03660046124a5565b6111cd565b6101f26103b3366004612465565b600e6020526000908152604090205460ff1681565b61025a6103d63660046124ee565b6111d8565b61020f6103e93660046121bc565b6111ef565b61025a6103fc3660046124a5565b61139e565b6101f261040f3660046125ca565b611405565b61025a610422366004612465565b611433565b6102946104353660046125f4565b611471565b61044d6104483660046121bc565b6114b5565b6040516101fe9190612611565b61044d6104683660046125f4565b611651565b6000610478826116e4565b92915050565b60606000805461048d90612674565b80601f01602080910402602001604051908101604052809291908181526020018280546104b990612674565b80156105065780601f106104db57610100808354040283529160200191610506565b820191906000526020600020905b8154815290600101906020018083116104e957829003601f168201915b5050505050905090565b600061051b82611709565b506000828152600460205260409020546001600160a01b0316610478565b610544828233611742565b5050565b61055061174f565b60005b8281101561062c5781600e6000868685818110610572576105726126ae565b90506020020160208101906105879190612465565b6001600160a01b031681526020810191909152604001600020805460ff19169115159190911790558383828181106105c1576105c16126ae565b90506020020160208101906105d69190612465565b6001600160a01b03167f9041c22ed79d1c19c69cc22fd9e38c93da4f2dd8cd32580594e232a8a18541cb83604051610612911515815260200190565b60405180910390a280610624816126da565b915050610553565b50505050565b600c6020526000908152604090208054600182015460028301546003840154600485015460058601805460ff96871697959694959490931693919261067690612674565b80601f01602080910402602001604051908101604052809291908181526020018280546106a290612674565b80156106ef5780601f106106c4576101008083540402835291602001916106ef565b820191906000526020600020905b8154815290600101906020018083116106d257829003601f168201915b5050505050905086565b6001600160a01b03821661072857604051633250574960e11b8152600060048201526024015b60405180910390fd5b600061073583833361177c565b9050836001600160a01b0316816001600160a01b03161461062c576040516364283d7b60e01b81526001600160a01b038086166004830152602482018490528216604482015260640161071f565b336000908152600e602052604081205460ff16806107ab5750600a546001600160a01b031633145b6107f05760405162461bcd60e51b8152602060048201526016602482015275139bdd08185d5d1a1bdc9a5e9959081d1bc81b5a5b9d60521b604482015260640161071f565b600b805460009182610801836126da565b9190505590506000600d600085600481111561081f5761081f6122cb565b6004811115610830576108306122cb565b815260208101919091526040908101600020815160c081019092528054829060ff166004811115610863576108636122cb565b6004811115610874576108746122cb565b81526001820154602082015260028201546040820152600382015460609091019060ff1660048111156108a9576108a96122cb565b60048111156108ba576108ba6122cb565b8152602001600482015481526020016005820180546108d890612674565b80601f016020809104026020016040519081016040528092919081815260200182805461090490612674565b80156109515780601f1061092657610100808354040283529160200191610951565b820191906000526020600020905b81548152906001019060200180831161093457829003601f168201915b505050919092525050506000838152600c60205260409020815181549293508392829060ff1916600183600481111561098c5761098c6122cb565b0217905550602082015181600101556040820151816002015560608201518160030160006101000a81548160ff021916908360048111156109cf576109cf6122cb565b02179055506080820151600482015560a082015160058201906109f29082612741565b50905050610a008583611791565b81856001600160a01b03167ff4529929b6b4b269ea6771aa1aa2430d8d6e3d19a633af30a026c03d39c3bf7b868460a00151604051610a40929190612801565b60405180910390a3509392505050565b336000908152600e602052604090205460609060ff1680610a7b5750600a546001600160a01b031633145b610ac05760405162461bcd60e51b8152602060048201526016602482015275139bdd08185d5d1a1bdc9a5e9959081d1bc81b5a5b9d60521b604482015260640161071f565b60008267ffffffffffffffff811115610adb57610adb6124d8565b604051908082528060200260200182016040528015610b04578160200160208202803683370190505b50905060005b83811015610dea57600b805460009182610b23836126da565b9190505590506000600d6000888886818110610b4157610b416126ae565b9050602002016020810190610b5691906125f4565b6004811115610b6757610b676122cb565b6004811115610b7857610b786122cb565b815260208101919091526040908101600020815160c081019092528054829060ff166004811115610bab57610bab6122cb565b6004811115610bbc57610bbc6122cb565b81526001820154602082015260028201546040820152600382015460609091019060ff166004811115610bf157610bf16122cb565b6004811115610c0257610c026122cb565b815260200160048201548152602001600582018054610c2090612674565b80601f0160208091040260200160405190810160405280929190818152602001828054610c4c90612674565b8015610c995780601f10610c6e57610100808354040283529160200191610c99565b820191906000526020600020905b815481529060010190602001808311610c7c57829003601f168201915b505050919092525050506000838152600c60205260409020815181549293508392829060ff19166001836004811115610cd457610cd46122cb565b0217905550602082015181600101556040820151816002015560608201518160030160006101000a81548160ff02191690836004811115610d1757610d176122cb565b02179055506080820151600482015560a08201516005820190610d3a9082612741565b50905050610d488883611791565b81886001600160a01b03167ff4529929b6b4b269ea6771aa1aa2430d8d6e3d19a633af30a026c03d39c3bf7b898987818110610d8657610d866126ae565b9050602002016020810190610d9b91906125f4565b8460a00151604051610dae929190612801565b60405180910390a381848481518110610dc957610dc96126ae565b60200260200101818152505050508080610de2906126da565b915050610b0a565b50949350505050565b6000610dfe83610edc565b8210610e2f5760405163295f44f760e21b81526001600160a01b03841660048201526024810183905260440161071f565b506001600160a01b03919091166000908152600660209081526040808320938352929052205490565b610e73838383604051806020016040528060008152506111d8565b505050565b6000610e8360085490565b8210610eac5760405163295f44f760e21b8152600060048201526024810183905260440161071f565b60088281548110610ebf57610ebf6126ae565b90600052602060002001549050919050565b600061047882611709565b60006001600160a01b038216610f08576040516322718ad960e21b81526000600482015260240161071f565b506001600160a01b031660009081526003602052604090205490565b610f2c61174f565b610f3660006117ab565b565b6000828152600260205260408120546001600160a01b0316610f6c5760405162461bcd60e51b815260040161071f90612823565b6000838152600c6020526040808220815160c081019092528054829060ff166004811115610f9c57610f9c6122cb565b6004811115610fad57610fad6122cb565b81526001820154602082015260028201546040820152600382015460609091019060ff166004811115610fe257610fe26122cb565b6004811115610ff357610ff36122cb565b81526020016004820154815260200160058201805461101190612674565b80601f016020809104026020016040519081016040528092919081815260200182805461103d90612674565b801561108a5780601f1061105f5761010080835404028352916020019161108a565b820191906000526020600020905b81548152906001019060200180831161106d57829003601f168201915b5050505050815250509050600260048111156110a8576110a86122cb565b815160048111156110bb576110bb6122cb565b036110cb57608001519050610478565b8260048111156110dd576110dd6122cb565b816060015160048111156110f3576110f36122cb565b0361110357608001519050610478565b600281608001516111149190612851565b915050610478565b60606001805461048d90612674565b6060600061113883610edc565b905060008167ffffffffffffffff811115611155576111556124d8565b60405190808252806020026020018201604052801561117e578160200160208202803683370190505b50905060005b828110156111c5576111968582610df3565b8282815181106111a8576111a86126ae565b6020908102919091010152806111bd816126da565b915050611184565b509392505050565b6105443383836117fd565b6111e38484846106f9565b61062c8484848461189c565b6000818152600260205260409020546060906001600160a01b03166112265760405162461bcd60e51b815260040161071f90612823565b6000828152600c6020526040808220815160c081019092528054829060ff166004811115611256576112566122cb565b6004811115611267576112676122cb565b81526001820154602082015260028201546040820152600382015460609091019060ff16600481111561129c5761129c6122cb565b60048111156112ad576112ad6122cb565b8152602001600482015481526020016005820180546112cb90612674565b80601f01602080910402602001604051908101604052809291908181526020018280546112f790612674565b80156113445780601f1061131957610100808354040283529160200191611344565b820191906000526020600020905b81548152906001019060200180831161132757829003601f168201915b505050505081525050905061136d81600001516004811115611368576113686122cb565b6119c5565b611376846119c5565b604051602001611387929190612873565b604051602081830303815290604052915050919050565b6113a661174f565b6001600160a01b0382166000818152600e6020908152604091829020805460ff191685151590811790915591519182527f9041c22ed79d1c19c69cc22fd9e38c93da4f2dd8cd32580594e232a8a18541cb910160405180910390a25050565b6001600160a01b03918216600090815260056020908152604080832093909416825291909152205460ff1690565b61143b61174f565b6001600160a01b03811661146557604051631e4fbdf760e01b81526000600482015260240161071f565b61146e816117ab565b50565b600d6020526000908152604090208054600182015460028301546003840154600485015460058601805460ff96871697959694959490931693919261067690612674565b6114ee6040805160c081018252600080825260208201819052918101829052906060820190815260200160008152602001606081525090565b6000828152600260205260409020546001600160a01b03166115225760405162461bcd60e51b815260040161071f90612823565b6000828152600c602052604090819020815160c081019092528054829060ff166004811115611553576115536122cb565b6004811115611564576115646122cb565b81526001820154602082015260028201546040820152600382015460609091019060ff166004811115611599576115996122cb565b60048111156115aa576115aa6122cb565b8152602001600482015481526020016005820180546115c890612674565b80601f01602080910402602001604051908101604052809291908181526020018280546115f490612674565b80156116415780601f1061161657610100808354040283529160200191611641565b820191906000526020600020905b81548152906001019060200180831161162457829003601f168201915b5050505050815250509050919050565b61168a6040805160c081018252600080825260208201819052918101829052906060820190815260200160008152602001606081525090565b600d60008360048111156116a0576116a06122cb565b60048111156116b1576116b16122cb565b815260208101919091526040908101600020815160c081019092528054829060ff166004811115611553576115536122cb565b60006001600160e01b0319821663780e9d6360e01b1480610478575061047882611a58565b6000818152600260205260408120546001600160a01b03168061047857604051637e27328960e01b81526004810184905260240161071f565b610e738383836001611aa8565b600a546001600160a01b03163314610f365760405163118cdaa760e01b815233600482015260240161071f565b6000611789848484611bae565b949350505050565b610544828260405180602001604052806000815250611c7b565b600a80546001600160a01b038381166001600160a01b0319831681179093556040519116919082907f8be0079c531659141344cd1fd0a4f28419497f9722a3daafe3b4186f6b6457e090600090a35050565b6001600160a01b03821661182f57604051630b61174360e31b81526001600160a01b038316600482015260240161071f565b6001600160a01b03838116600081815260056020908152604080832094871680845294825291829020805460ff191686151590811790915591519182527f17307eab39ab6107e8899845ad3d59bd9653f200f220920489ca2b5937696c31910160405180910390a3505050565b6001600160a01b0383163b1561062c57604051630a85bd0160e11b81526001600160a01b0384169063150b7a02906118de9033908890879087906004016128d8565b6020604051808303816000875af1925050508015611919575060408051601f3d908101601f1916820190925261191691810190612915565b60015b611982573d808015611947576040519150601f19603f3d011682016040523d82523d6000602084013e61194c565b606091505b50805160000361197a57604051633250574960e11b81526001600160a01b038516600482015260240161071f565b805181602001fd5b6001600160e01b03198116630a85bd0160e11b146119be57604051633250574960e11b81526001600160a01b038516600482015260240161071f565b5050505050565b606060006119d283611c92565b600101905060008167ffffffffffffffff8111156119f2576119f26124d8565b6040519080825280601f01601f191660200182016040528015611a1c576020820181803683370190505b5090508181016020015b600019016f181899199a1a9b1b9c1cb0b131b232b360811b600a86061a8153600a8504945084611a2657509392505050565b60006001600160e01b031982166380ac58cd60e01b1480611a8957506001600160e01b03198216635b5e139f60e01b145b8061047857506301ffc9a760e01b6001600160e01b0319831614610478565b8080611abc57506001600160a01b03821615155b15611b7e576000611acc84611709565b90506001600160a01b03831615801590611af85750826001600160a01b0316816001600160a01b031614155b8015611b0b5750611b098184611405565b155b15611b345760405163a9fbf51f60e01b81526001600160a01b038416600482015260240161071f565b8115611b7c5783856001600160a01b0316826001600160a01b03167f8c5be1e5ebec7d5bd14f71427d1e84f3dd0314c0f7b2291e5b200ac8c7c3b92560405160405180910390a45b505b5050600090815260046020526040902080546001600160a01b0319166001600160a01b0392909216919091179055565b600080611bbc858585611d6a565b90506001600160a01b038116611c1957611c1484600880546000838152600960205260408120829055600182018355919091527ff3f7a9fe364faab93b216da50a3214154f22a0a2b415b23a84c8169e8b636ee30155565b611c3c565b846001600160a01b0316816001600160a01b031614611c3c57611c3c8185611e63565b6001600160a01b038516611c5857611c5384611ef4565b611789565b846001600160a01b0316816001600160a01b031614611789576117898585611fa3565b611c858383611ff3565b610e73600084848461189c565b60008072184f03e93ff9f4daa797ed6e38ed64bf6a1f0160401b8310611cd15772184f03e93ff9f4daa797ed6e38ed64bf6a1f0160401b830492506040015b6d04ee2d6d415b85acef81000000008310611cfd576d04ee2d6d415b85acef8100000000830492506020015b662386f26fc100008310611d1b57662386f26fc10000830492506010015b6305f5e1008310611d33576305f5e100830492506008015b6127108310611d4757612710830492506004015b60648310611d59576064830492506002015b600a83106104785760010192915050565b6000828152600260205260408120546001600160a01b0390811690831615611d9757611d97818486612058565b6001600160a01b03811615611dd557611db4600085600080611aa8565b6001600160a01b038116600090815260036020526040902080546000190190555b6001600160a01b03851615611e04576001600160a01b0385166000908152600360205260409020805460010190555b60008481526002602052604080822080546001600160a01b0319166001600160a01b0389811691821790925591518793918516917fddf252ad1be2c89b69c2b068fc378daa952ba7f163c4a11628f55a4df523b3ef91a4949350505050565b6000611e6e83610edc565b600083815260076020526040902054909150808214611ec1576001600160a01b03841660009081526006602090815260408083208584528252808320548484528184208190558352600790915290208190555b5060009182526007602090815260408084208490556001600160a01b039094168352600681528383209183525290812055565b600854600090611f0690600190612932565b60008381526009602052604081205460088054939450909284908110611f2e57611f2e6126ae565b906000526020600020015490508060088381548110611f4f57611f4f6126ae565b6000918252602080832090910192909255828152600990915260408082208490558582528120556008805480611f8757611f87612945565b6001900381819060005260206000200160009055905550505050565b60006001611fb084610edc565b611fba9190612932565b6001600160a01b039093166000908152600660209081526040808320868452825280832085905593825260079052919091209190915550565b6001600160a01b03821661201d57604051633250574960e11b81526000600482015260240161071f565b600061202b8383600061177c565b90506001600160a01b03811615610e73576040516339e3563760e11b81526000600482015260240161071f565b6120638383836120bc565b610e73576001600160a01b03831661209157604051637e27328960e01b81526004810182905260240161071f565b60405163177e802f60e01b81526001600160a01b03831660048201526024810182905260440161071f565b60006001600160a01b038316158015906117895750826001600160a01b0316846001600160a01b031614806120f657506120f68484611405565b806117895750506000908152600460205260409020546001600160a01b03908116911614919050565b6001600160e01b03198116811461146e57600080fd5b60006020828403121561214757600080fd5b81356121528161211f565b9392505050565b60005b8381101561217457818101518382015260200161215c565b50506000910152565b60008151808452612195816020860160208601612159565b601f01601f19169290920160200192915050565b602081526000612152602083018461217d565b6000602082840312156121ce57600080fd5b5035919050565b80356001600160a01b03811681146121ec57600080fd5b919050565b6000806040838503121561220457600080fd5b61220d836121d5565b946020939093013593505050565b60008083601f84011261222d57600080fd5b50813567ffffffffffffffff81111561224557600080fd5b6020830191508360208260051b850101111561226057600080fd5b9250929050565b803580151581146121ec57600080fd5b60008060006040848603121561228c57600080fd5b833567ffffffffffffffff8111156122a357600080fd5b6122af8682870161221b565b90945092506122c2905060208501612267565b90509250925092565b634e487b7160e01b600052602160045260246000fd5b6005811061146e57634e487b7160e01b600052602160045260246000fd5b612308876122e1565b868152856020820152846040820152612320846122e1565b83606082015282608082015260c060a0820152600061234260c083018461217d565b98975050505050505050565b60008060006060848603121561236357600080fd5b61236c846121d5565b925061237a602085016121d5565b9150604084013590509250925092565b6005811061146e57600080fd5b600080604083850312156123aa57600080fd5b6123b3836121d5565b915060208301356123c38161238a565b809150509250929050565b6000806000604084860312156123e357600080fd5b6123ec846121d5565b9250602084013567ffffffffffffffff81111561240857600080fd5b6124148682870161221b565b9497909650939450505050565b6020808252825182820181905260009190848201906040850190845b818110156124595783518352928401929184019160010161243d565b50909695505050505050565b60006020828403121561247757600080fd5b612152826121d5565b6000806040838503121561249357600080fd5b8235915060208301356123c38161238a565b600080604083850312156124b857600080fd5b6124c1836121d5565b91506124cf60208401612267565b90509250929050565b634e487b7160e01b600052604160045260246000fd5b6000806000806080858703121561250457600080fd5b61250d856121d5565b935061251b602086016121d5565b925060408501359150606085013567ffffffffffffffff8082111561253f57600080fd5b818701915087601f83011261255357600080fd5b813581811115612565576125656124d8565b604051601f8201601f19908116603f0116810190838211818310171561258d5761258d6124d8565b816040528281528a60208487010111156125a657600080fd5b82602086016020830137600060208483010152809550505050505092959194509250565b600080604083850312156125dd57600080fd5b6125e6836121d5565b91506124cf602084016121d5565b60006020828403121561260657600080fd5b81356121528161238a565b6020815260008251612622816122e1565b806020840152506020830151604083015260408301516060830152606083015161264b816122e1565b80608084015250608083015160a083015260a083015160c08084015261178960e084018261217d565b600181811c9082168061268857607f821691505b6020821081036126a857634e487b7160e01b600052602260045260246000fd5b50919050565b634e487b7160e01b600052603260045260246000fd5b634e487b7160e01b600052601160045260246000fd5b6000600182016126ec576126ec6126c4565b5060010190565b601f821115610e7357600081815260208120601f850160051c8101602086101561271a5750805b601f850160051c820191505b8181101561273957828155600101612726565b505050505050565b815167ffffffffffffffff81111561275b5761275b6124d8565b61276f816127698454612674565b846126f3565b602080601f8311600181146127a4576000841561278c5750858301515b600019600386901b1c1916600185901b178555612739565b600085815260208120601f198616915b828110156127d3578886015182559484019460019091019084016127b4565b50858210156127f15787850151600019600388901b60f8161c191681555b5050505050600190811b01905550565b61280a836122e1565b828152604060208201526000611789604083018461217d565b602080825260149082015273151bdad95b88191bd95cc81b9bdd08195e1a5cdd60621b604082015260600190565b60008261286e57634e487b7160e01b600052601260045260246000fd5b500490565b7f68747470733a2f2f6170692e6d6f6e616d696e65722e636f6d2f6e66742f00008152600083516128ab81601e850160208801612159565b602f60f81b601e9184019182015283516128cc81601f840160208801612159565b01601f01949350505050565b6001600160a01b038581168252841660208201526040810183905260806060820181905260009061290b9083018461217d565b9695505050505050565b60006020828403121561292757600080fd5b81516121528161211f565b81810381811115610478576104786126c4565b634e487b7160e01b600052603160045260246000fdfea2646970667358221220098cfe6db9e025f0899e37282fb8d24b5bc1061c7e82a506c693a4c303b9d61264736f6c63430008140033",
  "devdoc": {
    "errors": {
      "ERC721EnumerableForbiddenBatchMint()": [
        {
          "details": "Batch mint is not allowed."
        }
      ],
      "ERC721IncorrectOwner(address,uint256,address)": [
        {
          "details": "Indicates an error related to the ownership over a particular token. Used in transfers.",
          "params": {
            "owner": "Address of the current owner of a token.",
            "sender": "Address whose tokens are being transferred.",
            "tokenId": "Identifier number of a token."
          }
        }
      ],
      "ERC721InsufficientApproval(address,uint256)": [
        {
          "details": "Indicates a failure with the `operator`s approval. Used in transfers.",
          "params": {
            "operator": "Address that may be allowed to operate on tokens without being their owner.",
            "tokenId": "Identifier number of a token."
          }
        }
      ],
      "ERC721InvalidApprover(address)": [
        {
          "details": "Indicates a failure with the `approver` of a token to be approved. Used in approvals.",
          "params": {
            "approver": "Address initiating an approval operation."
          }
        }
      ],
      "ERC721InvalidOperator(address)": [
        {
          "details": "Indicates a failure with the `operator` to be approved. Used in approvals.",
          "params": {
            "operator": "Address that may be allowed to operate on tokens without being their owner."
          }
        }
      ],
      "ERC721InvalidOwner(address)": [
        {
          "details": "Indicates that an address can't be an owner. For example, `address(0)` is a forbidden owner in EIP-20. Used in balance queries.",
          "params": {
            "owner": "Address of the current owner of a token."
          }
        }
      ],
      "ERC721InvalidReceiver(address)": [
        {
          "details": "Indicates a failure with the token `receiver`. Used in transfers.",
          "params": {
            "receiver": "Address to which tokens are being transferred."
          }
        }
      ],
      "ERC721InvalidSender(address)": [
        {
          "details": "Indicates a failure with the token `sender`. Used in transfers.",
          "params": {
            "sender": "Address whose tokens are being transferred."
          }
        }
      ],
      "ERC721NonexistentToken(uint256)": [
        {
          "details": "Indicates a `tokenId` whose `owner` is the zero address.",
          "params": {
            "tokenId": "Identifier number of a token."
          }
        }
      ],
      "ERC721OutOfBoundsIndex(address,uint256)": [
        {
          "details": "An `owner`'s token query was out of bounds for `index`. NOTE: The owner being `address(0)` indicates a global out of bounds index."
        }
      ],
      "OwnableInvalidOwner(address)": [
        {
          "details": "The owner is not a valid owner account. (eg. `address(0)`)"
        }
      ],
      "OwnableUnauthorizedAccount(address)": [
        {
          "details": "The caller account is not authorized to perform an operation."
        }
      ]
    },
    "events": {
      "Approval(address,address,uint256)": {
        "details": "Emitted when `owner` enables `approved` to manage the `tokenId` token."
      },
      "ApprovalForAll(address,address,bool)": {
        "details": "Emitted when `owner` enables or disables (`approved`) `operator` to manage all of its assets."
      },
      "Transfer(address,address,uint256)": {
        "details": "Emitted when `tokenId` token is transferred from `from` to `to`."
      }
    },
    "kind": "dev",
    "methods": {
      "approve(address,uint256)": {
        "details": "See {IERC721-approve}."
      },
      "balanceOf(address)": {
        "details": "See {IERC721-balanceOf}."
      },
      "getApproved(uint256)": {
        "details": "See {IERC721-getApproved}."
      },
      "isApprovedForAll(address,address)": {
        "details": "See {IERC721-isApprovedForAll}."
      },
      "name()": {
        "details": "See {IERC721Metadata-name}."
      },
      "owner()": {
        "details": "Returns the address of the current owner."
      },
      "ownerOf(uint256)": {
        "details": "See {IERC721-ownerOf}."
      },
      "renounceOwnership()": {
        "details": "Leaves the contract without owner. It will not be possible to call `onlyOwner` functions. Can only be called by the current owner. NOTE: Renouncing ownership will leave the contract without an owner, thereby disabling any functionality that is only available to the owner."
      },
      "safeTransferFrom(address,address,uint256)": {
        "details": "See {IERC721-safeTransferFrom}."
      },
      "safeTransferFrom(address,address,uint256,bytes)": {
        "details": "See {IERC721-safeTransferFrom}."
      },
      "setApprovalForAll(address,bool)": {
        "details": "See {IERC721-setApprovalForAll}."
      },
      "symbol()": {
        "details": "See {IERC721Metadata-symbol}."
      },
      "tokenByIndex(uint256)": {
        "details": "See {IERC721Enumerable-tokenByIndex}."
      },
      "tokenOfOwnerByIndex(address,uint256)": {
        "details": "See {IERC721Enumerable-tokenOfOwnerByIndex}."
      },
      "tokenURI(uint256)": {
        "details": "See {IERC721Metadata-tokenURI}."
      },
      "totalSupply()": {
        "details": "See {IERC721Enumerable-totalSupply}."
      },
      "transferFrom(address,address,uint256)": {
        "details": "See {IERC721-transferFrom}."
      },
      "transferOwnership(address)": {
        "details": "Transfers ownership of the contract to a new account (`newOwner`). Can only be called by the current owner."
      }
    },
    "version": 1
  },
  "userdoc": {
    "kind": "user",
    "methods": {},
    "version": 1
  },
  "storageLayout": {
    "storage": [
      {
        "astId": 395,
        "contract": "contracts/MinerNFT.sol:MinerNFT",
        "label": "_name",
        "offset": 0,
        "slot": "0",
        "type": "t_string_storage"
      },
      {
        "astId": 397,
        "contract": "contracts/MinerNFT.sol:MinerNFT",
        "label": "_symbol",
        "offset": 0,
        "slot": "1",
        "type": "t_string_storage"
      },
      {
        "astId": 401,
        "contract": "contracts/MinerNFT.sol:MinerNFT",
        "label": "_owners",
        "offset": 0,
        "slot": "2",
        "type": "t_mapping(t_uint256,t_address)"
      },
      {
        "astId": 405,
        "contract": "contracts/MinerNFT.sol:MinerNFT",
        "label": "_balances",
        "offset": 0,
        "slot": "3",
        "type": "t_mapping(t_address,t_uint256)"
      },
      {
        "astId": 409,
        "contract": "contracts/MinerNFT.sol:MinerNFT",
        "label": "_tokenApprovals",
        "offset": 0,
        "slot": "4",
        "type": "t_mapping(t_uint256,t_address)"
      },
      {
        "astId": 415,
        "contract": "contracts/MinerNFT.sol:MinerNFT",
        "label": "_operatorApprovals",
        "offset": 0,
        "slot": "5",
        "type": "t_mapping(t_address,t_mapping(t_address,t_bool))"
      },
      {
        "astId": 1525,
        "contract": "contracts/MinerNFT.sol:MinerNFT",
        "label": "_ownedTokens",
        "offset": 0,
        "slot": "6",
        "type": "t_mapping(t_address,t_mapping(t_uint256,t_uint256))"
      },
      {
        "astId": 1529,
        "contract": "contracts/MinerNFT.sol:MinerNFT",
        "label": "_ownedTokensIndex",
        "offset": 0,
        "slot": "7",
        "type": "t_mapping(t_uint256,t_uint256)"
      },
      {
        "astId": 1532,
        "contract": "contracts/MinerNFT.sol:MinerNFT",
        "label": "_allTokens",
        "offset": 0,
        "slot": "8",
        "type": "t_array(t_uint256)dyn_storage"
      },
      {
        "astId": 1536,
        "contract": "contracts/MinerNFT.sol:MinerNFT",
        "label": "_allTokensIndex",
        "offset": 0,
        "slot": "9",
        "type": "t_mapping(t_uint256,t_uint256)"
      },
      {
        "astId": 8,
        "contract": "contracts/MinerNFT.sol:MinerNFT",
        "label": "_owner",
        "offset": 0,
        "slot": "10",
        "type": "t_address"
      },
      {
        "astId": 4620,
        "contract": "contracts/MinerNFT.sol:MinerNFT",
        "label": "_nextTokenId",
        "offset": 0,
        "slot": "11",
        "type": "t_uint256"
      },
      {
        "astId": 4625,
        "contract": "contracts/MinerNFT.sol:MinerNFT",
        "label": "minerStats",
        "offset": 0,
        "slot": "12",
        "type": "t_mapping(t_uint256,t_struct(MinerStats)4617_storage)"
      },
      {
        "astId": 4631,
        "contract": "contracts/MinerNFT.sol:MinerNFT",
        "label": "minerConfig",
        "offset": 0,
        "slot": "13",
        "type": "t_mapping(t_enum(MinerType)4602,t_struct(MinerStats)4617_storage)"
      },
      {
        "astId": 4635,
        "contract": "contracts/MinerNFT.sol:MinerNFT",
        "label": "authorizedMinters",
        "offset": 0,
        "slot": "14",
        "type": "t_mapping(t_address,t_bool)"
      }
    ],
    "types": {
      "t_address": {
        "encoding": "inplace",
        "label": "address",
        "numberOfBytes": "20"
      },
      "t_array(t_uint256)dyn_storage": {
        "base": "t_uint256",
        "encoding": "dynamic_array",
        "label": "uint256[]",
        "numberOfBytes": "32"
      },
      "t_bool": {
        "encoding": "inplace",
        "label": "bool",
        "numberOfBytes": "1"
      },
      "t_enum(MinerType)4602": {
        "encoding": "inplace",
        "label": "enum MinerNFT.MinerType",
        "numberOfBytes": "1"
      },
      "t_enum(PatternType)4103": {
        "encoding": "inplace",
        "label": "enum GameManager.PatternType",
        "numberOfBytes": "1"
      },
      "t_mapping(t_address,t_bool)": {
        "encoding": "mapping",
        "key": "t_address",
        "label": "mapping(address => bool)",
        "numberOfBytes": "32",
        "value": "t_bool"
      },
      "t_mapping(t_address,t_mapping(t_address,t_bool))": {
        "encoding": "mapping",
        "key": "t_address",
        "label": "mapping(address => mapping(address => bool))",
        "numberOfBytes": "32",
        "value": "t_mapping(t_address,t_bool)"
      },
      "t_mapping(t_address,t_mapping(t_uint256,t_uint256))": {
        "encoding": "mapping",
        "key": "t_address",
        "label": "mapping(address => mapping(uint256 => uint256))",
        "numberOfBytes": "32",
        "value": "t_mapping(t_uint256,t_uint256)"
      },
      "t_mapping(t_address,t_uint256)": {
        "encoding": "mapping",
        "key": "t_address",
        "label": "mapping(address => uint256)",
        "numberOfBytes": "32",
        "value": "t_uint256"
      },
      "t_mapping(t_enum(MinerType)4602,t_struct(MinerStats)4617_storage)": {
        "encoding": "mapping",
        "key": "t_enum(MinerType)4602",
        "label": "mapping(enum MinerNFT.MinerType => struct MinerNFT.MinerStats)",
        "numberOfBytes": "32",
        "value": "t_struct(MinerStats)4617_storage"
      },
      "t_mapping(t_uint256,t_address)": {
        "encoding": "mapping",
        "key": "t_uint256",
        "label": "mapping(uint256 => address)",
        "numberOfBytes": "32",
        "value": "t_address"
      },
      "t_mapping(t_uint256,t_struct(MinerStats)4617_storage)": {
        "encoding": "mapping",
        "key": "t_uint256",
        "label": "mapping(uint256 => struct MinerNFT.MinerStats)",
        "numberOfBytes": "32",
        "value": "t_struct(MinerStats)4617_storage"
      },
      "t_mapping(t_uint256,t_uint256)": {
        "encoding": "mapping",
        "key": "t_uint256",
        "label": "mapping(uint256 => uint256)",
        "numberOfBytes": "32",
        "value": "t_uint256"
      },
      "t_string_storage": {
        "encoding": "bytes",
        "label": "string",
        "numberOfBytes": "32"
      },
      "t_struct(MinerStats)4617_storage": {
        "encoding": "inplace",
        "label": "struct MinerNFT.MinerStats",
        "members": [
          {
            "astId": 4605,
            "contract": "contracts/MinerNFT.sol:MinerNFT",
            "label": "minerType",
            "offset": 0,
            "slot": "0",
            "type": "t_enum(MinerType)4602"
          },
          {
            "astId": 4607,
            "contract": "contracts/MinerNFT.sol:MinerNFT",
            "label": "minRange",
            "offset": 0,
            "slot": "1",
            "type": "t_uint256"
          },
          {
            "astId": 4609,
            "contract": "contracts/MinerNFT.sol:MinerNFT",
            "label": "maxRange",
            "offset": 0,
            "slot": "2",
            "type": "t_uint256"
          },
          {
            "astId": 4612,
            "contract": "contracts/MinerNFT.sol:MinerNFT",
            "label": "specialization",
            "offset": 0,
            "slot": "3",
            "type": "t_enum(PatternType)4103"
          },
          {
            "astId": 4614,
            "contract": "contracts/MinerNFT.sol:MinerNFT",
            "label": "baseSuccessRate",
            "offset": 0,
            "slot": "4",
            "type": "t_uint256"
          },
          {
            "astId": 4616,
            "contract": "contracts/MinerNFT.sol:MinerNFT",
            "label": "name",
            "offset": 0,
            "slot": "5",
            "type": "t_string_storage"
          }
        ],
        "numberOfBytes": "192"
      },
      "t_uint256": {
        "encoding": "inplace",
        "label": "uint256",
        "numberOfBytes": "32"
      }
    }
  }
}