{
  "address": "0xbEdf47637e21cDaf9F43a5E38158E321f0E5505e",
  "abi": [
    {
      "inputs": [
        {
          "internalType": "address",
          "name": "_gameManager",
          "type": "address"
        },
        {
          "internalType": "address",
          "name": "_minerNFT",
          "type": "address"
        },
        {
          "internalType": "address",
          "name": "_rewardManager",
          "type": "address"
        }
      ],
      "stateMutability": "nonpayable",
      "type": "constructor"
    },
    {
      "inputs": [
        {
          "internalType": "address",
          "name": "owner",
          "type": "address"
        }
      ],
      "name": "OwnableInvalidOwner",
      "type": "error"
    },
    {
      "inputs": [
        {
          "internalType": "address",
          "name": "account",
          "type": "address"
        }
      ],
      "name": "OwnableUnauthorizedAccount",
      "type": "error"
    },
    {
      "inputs": [],
      "name": "ReentrancyGuardReentrantCall",
      "type": "error"
    },
    {
      "anonymous": false,
      "inputs": [
        {
          "indexed": true,
          "internalType": "address",
          "name": "player",
          "type": "address"
        },
        {
          "indexed": false,
          "internalType": "uint256",
          "name": "batchSuccesses",
          "type": "uint256"
        }
      ],
      "name": "AutoMiningBatch",
      "type": "event"
    },
    {
      "anonymous": false,
      "inputs": [
        {
          "indexed": true,
          "internalType": "address",
          "name": "player",
          "type": "address"
        }
      ],
      "name": "AutoMiningStarted",
      "type": "event"
    },
    {
      "anonymous": false,
      "inputs": [
        {
          "indexed": true,
          "internalType": "address",
          "name": "player",
          "type": "address"
        }
      ],
      "name": "AutoMiningStopped",
      "type": "event"
    },
    {
      "anonymous": false,
      "inputs": [
        {
          "indexed": true,
          "internalType": "address",
          "name": "player",
          "type": "address"
        },
        {
          "indexed": false,
          "internalType": "uint256",
          "name": "batchAttempts",
          "type": "uint256"
        },
        {
          "indexed": false,
          "internalType": "uint256",
          "name": "batchSuccesses",
          "type": "uint256"
        }
      ],
      "name": "BatchMiningCompleted",
      "type": "event"
    },
    {
      "anonymous": false,
      "inputs": [
        {
          "indexed": true,
          "internalType": "address",
          "name": "player",
          "type": "address"
        },
        {
          "indexed": false,
          "internalType": "uint256",
          "name": "totalAttempts",
          "type": "uint256"
        },
        {
          "indexed": false,
          "internalType": "uint256",
          "name": "totalSuccesses",
          "type": "uint256"
        },
        {
          "indexed": false,
          "internalType": "uint256",
          "name": "endTime",
          "type": "uint256"
        }
      ],
      "name": "MiningSessionEnded",
      "type": "event"
    },
    {
      "anonymous": false,
      "inputs": [
        {
          "indexed": true,
          "internalType": "address",
          "name": "player",
          "type": "address"
        },
        {
          "indexed": false,
          "internalType": "uint256[3]",
          "name": "nftIds",
          "type": "uint256[3]"
        },
        {
          "indexed": false,
          "internalType": "uint256",
          "name": "roundId",
          "type": "uint256"
        },
        {
          "indexed": false,
          "internalType": "uint256",
          "name": "startTime",
          "type": "uint256"
        }
      ],
      "name": "MiningSessionStarted",
      "type": "event"
    },
    {
      "anonymous": false,
      "inputs": [
        {
          "indexed": true,
          "internalType": "address",
          "name": "player",
          "type": "address"
        },
        {
          "indexed": true,
          "internalType": "uint256",
          "name": "nftId",
          "type": "uint256"
        },
        {
          "indexed": false,
          "internalType": "uint256",
          "name": "randomNumber",
          "type": "uint256"
        },
        {
          "indexed": false,
          "internalType": "uint256",
          "name": "roundId",
          "type": "uint256"
        },
        {
          "indexed": false,
          "internalType": "uint256",
          "name": "timestamp",
          "type": "uint256"
        }
      ],
      "name": "MiningSuccess",
      "type": "event"
    },
    {
      "anonymous": false,
      "inputs": [
        {
          "indexed": true,
          "internalType": "address",
          "name": "previousOwner",
          "type": "address"
        },
        {
          "indexed": true,
          "internalType": "address",
          "name": "newOwner",
          "type": "address"
        }
      ],
      "name": "OwnershipTransferred",
      "type": "event"
    },
    {
      "inputs": [],
      "name": "BATCH_SIZE",
      "outputs": [
        {
          "internalType": "uint256",
          "name": "",
          "type": "uint256"
        }
      ],
      "stateMutability": "view",
      "type": "function"
    },
    {
      "inputs": [],
      "name": "MAX_MINING_DURATION",
      "outputs": [
        {
          "internalType": "uint256",
          "name": "",
          "type": "uint256"
        }
      ],
      "stateMutability": "view",
      "type": "function"
    },
    {
      "inputs": [],
      "name": "MINING_INTERVAL",
      "outputs": [
        {
          "internalType": "uint256",
          "name": "",
          "type": "uint256"
        }
      ],
      "stateMutability": "view",
      "type": "function"
    },
    {
      "inputs": [],
      "name": "TPS_PER_MINER",
      "outputs": [
        {
          "internalType": "uint256",
          "name": "",
          "type": "uint256"
        }
      ],
      "stateMutability": "view",
      "type": "function"
    },
    {
      "inputs": [
        {
          "internalType": "address",
          "name": "",
          "type": "address"
        }
      ],
      "name": "activeSessions",
      "outputs": [
        {
          "internalType": "address",
          "name": "player",
          "type": "address"
        },
        {
          "internalType": "uint256",
          "name": "roundId",
          "type": "uint256"
        },
        {
          "internalType": "uint256",
          "name": "startTime",
          "type": "uint256"
        },
        {
          "internalType": "bool",
          "name": "isActive",
          "type": "bool"
        },
        {
          "internalType": "uint256",
          "name": "totalAttempts",
          "type": "uint256"
        },
        {
          "internalType": "uint256",
          "name": "totalSuccesses",
          "type": "uint256"
        },
        {
          "internalType": "uint256",
          "name": "lastMiningTime",
          "type": "uint256"
        },
        {
          "internalType": "bool",
          "name": "autoMining",
          "type": "bool"
        },
        {
          "internalType": "uint256",
          "name": "nextAutoMiningTime",
          "type": "uint256"
        }
      ],
      "stateMutability": "view",
      "type": "function"
    },
    {
      "inputs": [
        {
          "internalType": "address",
          "name": "",
          "type": "address"
        }
      ],
      "name": "autoMiningEnabled",
      "outputs": [
        {
          "internalType": "bool",
          "name": "",
          "type": "bool"
        }
      ],
      "stateMutability": "view",
      "type": "function"
    },
    {
      "inputs": [
        {
          "internalType": "address",
          "name": "player",
          "type": "address"
        }
      ],
      "name": "canExecuteAutoMining",
      "outputs": [
        {
          "internalType": "bool",
          "name": "",
          "type": "bool"
        }
      ],
      "stateMutability": "view",
      "type": "function"
    },
    {
      "inputs": [
        {
          "internalType": "address",
          "name": "player",
          "type": "address"
        }
      ],
      "name": "executeAutoMining",
      "outputs": [],
      "stateMutability": "nonpayable",
      "type": "function"
    },
    {
      "inputs": [
        {
          "internalType": "address",
          "name": "player",
          "type": "address"
        }
      ],
      "name": "forceEndSession",
      "outputs": [],
      "stateMutability": "nonpayable",
      "type": "function"
    },
    {
      "inputs": [],
      "name": "gameManager",
      "outputs": [
        {
          "internalType": "contract GameManager",
          "name": "",
          "type": "address"
        }
      ],
      "stateMutability": "view",
      "type": "function"
    },
    {
      "inputs": [
        {
          "internalType": "address",
          "name": "player",
          "type": "address"
        }
      ],
      "name": "getAutoMiningStatus",
      "outputs": [
        {
          "internalType": "bool",
          "name": "isAutoMining",
          "type": "bool"
        },
        {
          "internalType": "uint256",
          "name": "nextMiningTime",
          "type": "uint256"
        },
        {
          "internalType": "uint256",
          "name": "cooldownRemaining",
          "type": "uint256"
        }
      ],
      "stateMutability": "view",
      "type": "function"
    },
    {
      "inputs": [
        {
          "internalType": "address",
          "name": "player",
          "type": "address"
        },
        {
          "internalType": "uint256",
          "name": "limit",
          "type": "uint256"
        }
      ],
      "name": "getMiningHistory",
      "outputs": [
        {
          "components": [
            {
              "internalType": "address",
              "name": "player",
              "type": "address"
            },
            {
              "internalType": "uint256",
              "name": "nftId",
              "type": "uint256"
            },
            {
              "internalType": "uint256",
              "name": "roundId",
              "type": "uint256"
            },
            {
              "internalType": "uint256",
              "name": "randomNumber",
              "type": "uint256"
            },
            {
              "internalType": "bool",
              "name": "success",
              "type": "bool"
            },
            {
              "internalType": "uint256",
              "name": "timestamp",
              "type": "uint256"
            }
          ],
          "internalType": "struct MiningEngine.MiningAttempt[]",
          "name": "",
          "type": "tuple[]"
        }
      ],
      "stateMutability": "view",
      "type": "function"
    },
    {
      "inputs": [
        {
          "internalType": "address",
          "name": "player",
          "type": "address"
        }
      ],
      "name": "getMiningStats",
      "outputs": [
        {
          "internalType": "uint256",
          "name": "attempts",
          "type": "uint256"
        },
        {
          "internalType": "uint256",
          "name": "successes",
          "type": "uint256"
        },
        {
          "internalType": "uint256",
          "name": "currentTPS",
          "type": "uint256"
        },
        {
          "internalType": "bool",
          "name": "isActive",
          "type": "bool"
        },
        {
          "internalType": "uint256",
          "name": "remainingTime",
          "type": "uint256"
        }
      ],
      "stateMutability": "view",
      "type": "function"
    },
    {
      "inputs": [
        {
          "internalType": "uint256",
          "name": "count",
          "type": "uint256"
        }
      ],
      "name": "getRecentSuccesses",
      "outputs": [
        {
          "components": [
            {
              "internalType": "address",
              "name": "player",
              "type": "address"
            },
            {
              "internalType": "uint256",
              "name": "nftId",
              "type": "uint256"
            },
            {
              "internalType": "uint256",
              "name": "roundId",
              "type": "uint256"
            },
            {
              "internalType": "uint256",
              "name": "randomNumber",
              "type": "uint256"
            },
            {
              "internalType": "bool",
              "name": "success",
              "type": "bool"
            },
            {
              "internalType": "uint256",
              "name": "timestamp",
              "type": "uint256"
            }
          ],
          "internalType": "struct MiningEngine.MiningAttempt[]",
          "name": "",
          "type": "tuple[]"
        }
      ],
      "stateMutability": "view",
      "type": "function"
    },
    {
      "inputs": [],
      "name": "minerNFT",
      "outputs": [
        {
          "internalType": "contract MinerNFT",
          "name": "",
          "type": "address"
        }
      ],
      "stateMutability": "view",
      "type": "function"
    },
    {
      "inputs": [
        {
          "internalType": "address",
          "name": "",
          "type": "address"
        },
        {
          "internalType": "uint256",
          "name": "",
          "type": "uint256"
        }
      ],
      "name": "miningHistory",
      "outputs": [
        {
          "internalType": "address",
          "name": "player",
          "type": "address"
        },
        {
          "internalType": "uint256",
          "name": "nftId",
          "type": "uint256"
        },
        {
          "internalType": "uint256",
          "name": "roundId",
          "type": "uint256"
        },
        {
          "internalType": "uint256",
          "name": "randomNumber",
          "type": "uint256"
        },
        {
          "internalType": "bool",
          "name": "success",
          "type": "bool"
        },
        {
          "internalType": "uint256",
          "name": "timestamp",
          "type": "uint256"
        }
      ],
      "stateMutability": "view",
      "type": "function"
    },
    {
      "inputs": [],
      "name": "owner",
      "outputs": [
        {
          "internalType": "address",
          "name": "",
          "type": "address"
        }
      ],
      "stateMutability": "view",
      "type": "function"
    },
    {
      "inputs": [],
      "name": "performBatchMining",
      "outputs": [],
      "stateMutability": "nonpayable",
      "type": "function"
    },
    {
      "inputs": [
        {
          "internalType": "address",
          "name": "",
          "type": "address"
        }
      ],
      "name": "playerTotalSuccesses",
      "outputs": [
        {
          "internalType": "uint256",
          "name": "",
          "type": "uint256"
        }
      ],
      "stateMutability": "view",
      "type": "function"
    },
    {
      "inputs": [],
      "name": "renounceOwnership",
      "outputs": [],
      "stateMutability": "nonpayable",
      "type": "function"
    },
    {
      "inputs": [],
      "name": "rewardManager",
      "outputs": [
        {
          "internalType": "contract RewardManager",
          "name": "",
          "type": "address"
        }
      ],
      "stateMutability": "view",
      "type": "function"
    },
    {
      "inputs": [
        {
          "internalType": "address",
          "name": "_gameManager",
          "type": "address"
        }
      ],
      "name": "setGameManager",
      "outputs": [],
      "stateMutability": "nonpayable",
      "type": "function"
    },
    {
      "inputs": [
        {
          "internalType": "address",
          "name": "_minerNFT",
          "type": "address"
        }
      ],
      "name": "setMinerNFT",
      "outputs": [],
      "stateMutability": "nonpayable",
      "type": "function"
    },
    {
      "inputs": [
        {
          "internalType": "address",
          "name": "_rewardManager",
          "type": "address"
        }
      ],
      "name": "setRewardManager",
      "outputs": [],
      "stateMutability": "nonpayable",
      "type": "function"
    },
    {
      "inputs": [],
      "name": "startAutoMining",
      "outputs": [],
      "stateMutability": "nonpayable",
      "type": "function"
    },
    {
      "inputs": [
        {
          "internalType": "uint256[3]",
          "name": "nftIds",
          "type": "uint256[3]"
        }
      ],
      "name": "startMining",
      "outputs": [],
      "stateMutability": "nonpayable",
      "type": "function"
    },
    {
      "inputs": [],
      "name": "stopAutoMining",
      "outputs": [],
      "stateMutability": "nonpayable",
      "type": "function"
    },
    {
      "inputs": [],
      "name": "stopMining",
      "outputs": [],
      "stateMutability": "nonpayable",
      "type": "function"
    },
    {
      "inputs": [
        {
          "internalType": "address",
          "name": "newOwner",
          "type": "address"
        }
      ],
      "name": "transferOwnership",
      "outputs": [],
      "stateMutability": "nonpayable",
      "type": "function"
    }
  ],
  "transactionHash": "0x02b4fa4f92e1e463759200cad49cf5c9b10b4fde213934c5e609bad4933d35d0",
  "args": [
    "0x84C01e7701E0cAEA22aaF84ec50f926ae247115e",
    "0xE21001E072472642946B3Cc2Daa71f602EF92234",
    "0xE0F15D16E0666bC625b938Cd48a636e0506e5A7A"
  ],
  "numDeployments": 4,
  "solcInputHash": "8f10f76b15ee839fe87cae778b661d96",
  "bytecode": "0x60806040523480156200001157600080fd5b5060405162002af138038062002af183398101604081905262000034916200011b565b33806200005b57604051631e4fbdf760e01b81526000600482015260240160405180910390fd5b6200006681620000ae565b5060018055600280546001600160a01b039485166001600160a01b03199182161790915560038054938516938216939093179092556004805491909316911617905562000165565b600080546001600160a01b038381166001600160a01b0319831681178455604051919092169283917f8be0079c531659141344cd1fd0a4f28419497f9722a3daafe3b4186f6b6457e09190a35050565b80516001600160a01b03811681146200011657600080fd5b919050565b6000806000606084860312156200013157600080fd5b6200013c84620000fe565b92506200014c60208501620000fe565b91506200015c60408501620000fe565b90509250925092565b61297c80620001756000396000f3fe608060405234801561001057600080fd5b50600436106101cf5760003560e01c806367a9fdb211610104578063b7127e41116100a2578063c6b0526611610071578063c6b05266146104f0578063da40867914610503578063f2fde38b1461050b578063f5372b781461051e57600080fd5b8063b7127e4114610487578063b80b03e41461049a578063bdc59207146104ca578063c4d137c6146104dd57600080fd5b80638da5cb5b116100de5780638da5cb5b14610410578063996a0b5b146104215780639a4ca5a114610441578063aba71b391461047e57600080fd5b806367a9fdb2146103ed578063715018a6146104005780637f54f6c21461040857600080fd5b806327f79d1e1161017157806349faa4d41161014b57806349faa4d41461037e5780634da3255d146103865780634eff2240146103995780635dc1fbc6146103e557600080fd5b806327f79d1e146103505780632ba77ec41461036357806333188aa51461037657600080fd5b8063153ee554116101ad578063153ee5541461022f57806323ef2936146102425780632409dcda146102fd57806326ea71c21461033057600080fd5b806306c55133146101d45780630f4ef8a6146101ef578063139aea4d1461021a575b600080fd5b6101dc603281565b6040519081526020015b60405180910390f35b600454610202906001600160a01b031681565b6040516001600160a01b0390911681526020016101e6565b61022d6102283660046125a2565b610526565b005b61022d61023d3660046125a2565b610a7b565b6102ad6102503660046125a2565b600560208190526000918252604090912080546004820154928201546006830154600784015460088501546009860154600a870154600b909701546001600160a01b039096169796949560ff948516959394929391929091169089565b604080516001600160a01b03909a168a5260208a0198909852968801959095529215156060870152608086019190915260a085015260c0840152151560e0830152610100820152610120016101e6565b61032061030b3660046125a2565b60086020526000908152604090205460ff1681565b60405190151581526020016101e6565b61034361033e3660046125bf565b610aa5565b6040516101e691906125eb565b61022d61035e36600461266e565b610c44565b61022d6103713660046125a2565b611029565b61022d611075565b6101dc600a81565b61022d6103943660046125a2565b61116b565b6103ac6103a73660046125bf565b611195565b604080516001600160a01b03909716875260208701959095529385019290925260608401521515608083015260a082015260c0016101e6565b61022d6111f9565b6103436103fb366004612696565b611695565b61022d611827565b6101dc60c881565b6000546001600160a01b0316610202565b6101dc61042f3660046125a2565b60076020526000908152604090205481565b61045461044f3660046125a2565b611839565b6040805195865260208601949094529284019190915215156060830152608082015260a0016101e6565b6101dc61025881565b61022d6104953660046125a2565b6119a9565b6104ad6104a83660046125a2565b6119d3565b6040805193151584526020840192909252908201526060016101e6565b6103206104d83660046125a2565b611adc565b600354610202906001600160a01b031681565b600254610202906001600160a01b031681565b61022d611bef565b61022d6105193660046125a2565b611c2a565b61022d611c65565b6001600160a01b0381166000908152600560205260409020600681015460ff1661056b5760405162461bcd60e51b8152600401610562906126af565b60405180910390fd5b600a81015460ff166105bf5760405162461bcd60e51b815260206004820152601760248201527f4175746f206d696e696e67206e6f7420656e61626c65640000000000000000006044820152606401610562565b80600b015442101561060a5760405162461bcd60e51b815260206004820152601460248201527320baba379036b4b734b7339031b7b7b63237bbb760611b6044820152606401610562565b610258816005015461061c91906126f0565b42106106635760405162461bcd60e51b8152602060048201526016602482015275135a5b9a5b99c81cd95cdcda5bdb88195e1c1a5c995960521b6044820152606401610562565b6002546040805163a32bf59760e01b815290516000926001600160a01b03169163a32bf597916004808301926101209291908290030181865afa1580156106ae573d6000803e3d6000fd5b505050506040513d601f19601f820116820180604052508101906106d29190612775565b80516004840154919250146107195760405162461bcd60e51b815260206004820152600d60248201526c149bdd5b990818da185b99d959609a1b6044820152606401610562565b6000805b60038110156109c55760005b600a8110156109b257600061075986600101846003811061074c5761074c6127fc565b0154838860070154611d3c565b9050600061077e82886001018660038110610776576107766127fc565b015488611dac565b90508015610986578461079081612812565b60088901805491975090915060006107a783612812565b90915550506001600160a01b03881660009081526007602052604081208054916107d083612812565b90915550506001600160a01b038816600081815260066020908152604091829020825160c08101909352928252810160018a018760038110610814576108146127fc565b0154815260048a8101546020808401919091526040808401889052600160608086018290524260809687015287548083018955600098895297849020875160069099020180546001600160a01b0319166001600160a01b03998a1617815593870151918401919091558582015160028085019190915590860151600384015593850151828401805460ff191691151591909117905560a0909401516005909101559054915163d279c19160e01b81528b84169181019190915291169063d279c191906024016020604051808303816000875af11580156108f8573d6000803e3d6000fd5b505050506040513d601f19601f8201168201806040525081019061091c919061282b565b50866001018460038110610932576109326127fc565b0154600488015460408051858152602081019290925242908201526001600160a01b038a16907f753244bf3a31bdabae643d3f0b38eefe101e7e80bced1b8a8ef071ff82ab91d99060600160405180910390a35b60078701805490600061099883612812565b9190505550505080806109aa90612812565b915050610729565b50806109bd81612812565b91505061071d565b504260098401556109d96103e860c861285c565b6109e390426126f0565b600b8401556040518181526001600160a01b038516907ff87bb534c53def9095239d41b53663a712fb1c62bc8020d23199695e0696c9e49060200160405180910390a26102588360050154610a3891906126f0565b4210610a7557600a8301805460ff199081169091556001600160a01b038516600090815260086020526040902080549091169055610a7584611e9f565b50505050565b610a83611ff0565b600480546001600160a01b0319166001600160a01b0392909216919091179055565b6001600160a01b0382166000908152600660209081526040808320805482518185028101850190935280835260609493849084015b82821015610b505760008481526020908190206040805160c0810182526006860290920180546001600160a01b031683526001808201548486015260028201549284019290925260038101546060840152600481015460ff16151560808401526005015460a08301529083529092019101610ada565b5050505090508260001480610b655750805183115b15610b71579050610c3e565b60008367ffffffffffffffff811115610b8c57610b8c612703565b604051908082528060200260200182016040528015610bc557816020015b610bb26124f9565b815260200190600190039081610baa5790505b5090506000848351610bd79190612870565b905060005b85811015610c375783610bef82846126f0565b81518110610bff57610bff6127fc565b6020026020010151838281518110610c1957610c196127fc565b60200260200101819052508080610c2f90612812565b915050610bdc565b5090925050505b92915050565b610c4c61201d565b3360009081526005602052604090206006015460ff1615610ca05760405162461bcd60e51b815260206004820152600e60248201526d416c7265616479206d696e696e6760901b6044820152606401610562565b600260009054906101000a90046001600160a01b03166001600160a01b03166345945a456040518163ffffffff1660e01b8152600401602060405180830381865afa158015610cf3573d6000803e3d6000fd5b505050506040513d601f19601f82011682018060405250810190610d17919061282b565b610d555760405162461bcd60e51b815260206004820152600f60248201526e139bc81858dd1a5d99481c9bdd5b99608a1b6044820152606401610562565b60005b6003811015610e47576003805433916001600160a01b0390911690636352211e90859085908110610d8b57610d8b6127fc565b60200201356040518263ffffffff1660e01b8152600401610dae91815260200190565b602060405180830381865afa158015610dcb573d6000803e3d6000fd5b505050506040513d601f19601f82011682018060405250810190610def9190612883565b6001600160a01b031614610e355760405162461bcd60e51b815260206004820152600d60248201526c2737ba1027232a1037bbb732b960991b6044820152606401610562565b80610e3f81612812565b915050610d58565b506002546040805163a32bf59760e01b815290516000926001600160a01b03169163a32bf597916004808301926101209291908290030181865afa158015610e93573d6000803e3d6000fd5b505050506040513d601f19601f82011682018060405250810190610eb79190612775565b604080516101408101825233815281516060818101909352929350916020830191859060039083908390808284376000920182905250928452505083516020808401919091524260408085018290526001606086018190526080860185905260a0860185905260c086019290925260e085018490526101009094018390523383526005825292909120835181546001600160a01b0319166001600160a01b03909116178155908301519091610f719190830190600361253a565b50604082810151600483015560608301516005830155608083015160068301805491151560ff1992831617905560a0840151600784015560c0840151600884015560e08401516009840155610100840151600a840180549115159190921617905561012090920151600b909101558151905133917f6eaae12a5fd9196b99643264fbbedcd6275fbeb394377c0440fbde96bc726cad9161101491869142906128a0565b60405180910390a25061102660018055565b50565b611031611ff0565b6001600160a01b03811660009081526005602052604090206006015460ff1661106c5760405162461bcd60e51b8152600401610562906126af565b61102681611e9f565b336000908152600560205260409020600681015460ff166110a85760405162461bcd60e51b8152600401610562906126af565b600a81015460ff16156110fd5760405162461bcd60e51b815260206004820152601a60248201527f4175746f206d696e696e6720616c7265616479206163746976650000000000006044820152606401610562565b600a8101805460ff191660011790556111196103e860c861285c565b61112390426126f0565b600b82015533600081815260086020526040808220805460ff19166001179055517f5787f91f6aba431e6513a07e87e374b7e663eb1be1154ed4ed8babb31ef7ad5b9190a250565b611173611ff0565b600380546001600160a01b0319166001600160a01b0392909216919091179055565b600660205281600052604060002081815481106111b157600080fd5b60009182526020909120600690910201805460018201546002830154600384015460048501546005909501546001600160a01b03909416965091945092909160ff9091169086565b61120161201d565b336000908152600560205260409020600681015460ff166112345760405162461bcd60e51b8152600401610562906126af565b6112416103e860c861285c565b816009015461125091906126f0565b4210156112915760405162461bcd60e51b815260206004820152600f60248201526e135a5b9a5b99c81d1bdbc819985cdd608a1b6044820152606401610562565b61025881600501546112a391906126f0565b42106112ea5760405162461bcd60e51b8152602060048201526016602482015275135a5b9a5b99c81cd95cdcda5bdb88195e1c1a5c995960521b6044820152606401610562565b6002546040805163a32bf59760e01b815290516000926001600160a01b03169163a32bf597916004808301926101209291908290030181865afa158015611335573d6000803e3d6000fd5b505050506040513d601f19601f820116820180604052508101906113599190612775565b80516004840154919250146113a05760405162461bcd60e51b815260206004820152600d60248201526c149bdd5b990818da185b99d959609a1b6044820152606401610562565b6000805b600381101561161a5760005b600a8110156116075760006113d386600101846003811061074c5761074c6127fc565b905060006113f082886001018660038110610776576107766127fc565b905080156115db578461140281612812565b600889018054919750909150600061141983612812565b909155505033600090815260076020526040812080549161143983612812565b909155505033600081815260066020908152604091829020825160c08101909352928252810160018a018760038110611474576114746127fc565b0154815260048a8101546020808401919091526040808401889052600160608086018290524260809687015287548083018955600098895297849020875160069099020180546001600160a01b0319166001600160a01b03998a1617815593870151918401919091558582015160028085019190915590860151600384015593850151828401805460ff191691151591909117905560a0909401516005909101559054915163d279c19160e01b8152339181019190915291169063d279c191906024016020604051808303816000875af1158015611556573d6000803e3d6000fd5b505050506040513d601f19601f8201168201806040525081019061157a919061282b565b50866001018460038110611590576115906127fc565b01546004880154604080518581526020810192909252429082015233907f753244bf3a31bdabae643d3f0b38eefe101e7e80bced1b8a8ef071ff82ab91d99060600160405180910390a35b6007870180549060006115ed83612812565b9190505550505080806115ff90612812565b9150506113b0565b508061161281612812565b9150506113a4565b50426009840155337f667d547a1c63d0f91f59b11df858d15f070f86530ba0e1579306054fbbf7dc8161164f600a60036128ba565b60408051918252602082018590520160405180910390a2610258836005015461167891906126f0565b42106116875761168733611e9f565b50505061169360018055565b565b336000908152600660209081526040808320805482518185028101850190935280835260609493849084015b828210156117375760008481526020908190206040805160c0810182526006860290920180546001600160a01b031683526001808201548486015260028201549284019290925260038101546060840152600481015460ff16151560808401526005015460a083015290835290920191016116c1565b505050509050826000148061174c5750805183115b156117575792915050565b60008367ffffffffffffffff81111561177257611772612703565b6040519080825280602002602001820160405280156117ab57816020015b6117986124f9565b8152602001906001900390816117905790505b50905060008483516117bd9190612870565b905060005b8581101561181d57836117d582846126f0565b815181106117e5576117e56127fc565b60200260200101518382815181106117ff576117ff6127fc565b6020026020010181905250808061181590612812565b9150506117c2565b5090949350505050565b61182f611ff0565b6116936000612047565b6001600160a01b0381811660009081526005602090815260408083208151610140810183528154909516855281516060810192839052939485948594859485948594939092840191600184019060039082845b81548152602001906001019080831161188c5750505091835250506004820154602082015260058201546040820152600682015460ff908116151560608084019190915260078401546080840152600884015460a0840152600984015460c0840152600a840154909116151560e0830152600b909201546101009091015281015190915060009061191d9042612870565b90508160a001518260c0015160008311611938576000611948565b828460a00151611948919061285c565b608085015180611959576000611995565b42610258876060015161196c91906126f0565b11611978576000611995565b42610258876060015161198b91906126f0565b6119959190612870565b939c929b5090995097509095509350505050565b6119b1611ff0565b600280546001600160a01b0319166001600160a01b0392909216919091179055565b6001600160a01b038082166000908152600560209081526040808320815161014081018352815490951685528151606081019092529293849384938493908301906001830160038282826020028201915b815481526020019060010190808311611a245750505091835250506004820154602082015260058201546040820152600682015460ff9081161515606083015260078301546080830152600883015460a0830152600983015460c0830152600a83015416151560e0820152600b9091015461010090910152610120810151909150600090421015611ac35742826101200151611ac09190612870565b90505b6101008201516101209092015191969195509350915050565b6001600160a01b0381811660009081526005602090815260408083208151610140810183528154909516855281516060810192839052939485949093919291840191600184019060039082845b815481526020019060010190808311611b295750505091835250506004820154602082015260058201546040820152600682015460ff908116151560608301526007830154608080840191909152600884015460a0840152600984015460c0840152600a840154909116151560e0830152600b90920154610100909101528101519091508015611bbb57508061010001515b8015611bcc57508061012001514210155b8015611be857506102588160600151611be591906126f0565b42105b9392505050565b3360009081526005602052604090206006015460ff16611c215760405162461bcd60e51b8152600401610562906126af565b61169333611e9f565b611c32611ff0565b6001600160a01b038116611c5c57604051631e4fbdf760e01b815260006004820152602401610562565b61102681612047565b336000908152600560205260409020600681015460ff16611c985760405162461bcd60e51b8152600401610562906126af565b600a81015460ff16611ce55760405162461bcd60e51b81526020600482015260166024820152754175746f206d696e696e67206e6f742061637469766560501b6044820152606401610562565b600a8101805460ff199081169091556000600b83018190553380825260086020526040808320805490941690935591517f84abe2cabf8cc6984b22564b10b65046a08b87cb8b9fd5773f79c2ecb6c4ad609190a250565b60004244338686865a6040805160208101989098528701959095526bffffffffffffffffffffffff19606094851b16938601939093526074850191909152609484015260b483015260d482015260f40160408051601f198184030181529190528051602090910120949350505050565b608081015160a08201516000918291611dc6908290612870565b611dd19060016126f0565b611ddb90876128d1565b611de591906126f0565b90506000611df7828560600151612097565b905080611e0957600092505050611be8565b600354606085015160405163937a79e960e01b81526000926001600160a01b03169163937a79e991611e3f918a916004016128fb565b602060405180830381865afa158015611e5c573d6000803e3d6000fd5b505050506040513d601f19601f82011682018060405250810190611e80919061292d565b90506000611e90612710896128d1565b91909110979650505050505050565b6001600160a01b0381166000908152600560205260409020600a81015460ff1615611f1c57600a8101805460ff199081169091556001600160a01b0383166000818152600860205260408082208054909416909355915190917f84abe2cabf8cc6984b22564b10b65046a08b87cb8b9fd5773f79c2ecb6c4ad6091a25b62015f90816007015410611f8c576004805460405163df49f66360e01b81526001600160a01b038581169382019390935291169063df49f66390602401600060405180830381600087803b158015611f7357600080fd5b505af1158015611f87573d6000803e3d6000fd5b505050505b6007810154600882015460408051928352602083019190915242908201526001600160a01b038316907f30ebaf65053c3d3dcb19581e2fa3f0e804b68a504ed415604a2deeca636dd9279060600160405180910390a2600601805460ff1916905550565b6000546001600160a01b031633146116935760405163118cdaa760e01b8152336004820152602401610562565b60026001540361204057604051633ee5aeb560e01b815260040160405180910390fd5b6002600155565b600080546001600160a01b038381166001600160a01b0319831681178455604051919092169283917f8be0079c531659141344cd1fd0a4f28419497f9722a3daafe3b4186f6b6457e09190a35050565b6000808260048111156120ac576120ac6128e5565b036120c4576120bc6002846128d1565b159050610c3e565b60018260048111156120d8576120d86128e5565b036120f2576120e86002846128d1565b6001149050610c3e565b6002826004811115612106576121066128e5565b0361211b5761211483612168565b9050610c3e565b600382600481111561212f5761212f6128e5565b0361213d57612114836121ed565b6004826004811115612151576121516128e5565b0361215f576121148361223a565b50600092915050565b6000600282101561217b57506000919050565b8160020361218b57506001919050565b6121966002836128d1565b6000036121a557506000919050565b60035b826121b382806128ba565b116121e4576121c281846128d1565b6000036121d25750600092915050565b6121dd6002826126f0565b90506121a8565b50600192915050565b6000806121f98361226c565b905061222081604051806040016040528060038152602001620ccc4d60ea1b815250612375565b80611be8575061223261013a846128d1565b159392505050565b60008160000361224c57506001919050565b600061225783612454565b90508261226482806128ba565b149392505050565b6060816000036122935750506040805180820190915260018152600360fc1b602082015290565b8160005b81156122bd57806122a781612812565b91506122b69050600a8361285c565b9150612297565b60008167ffffffffffffffff8111156122d8576122d8612703565b6040519080825280601f01601f191660200182016040528015612302576020820181803683370190505b5090505b841561236d57612317600183612870565b9150612324600a866128d1565b61232f9060306126f0565b60f81b818381518110612344576123446127fc565b60200101906001600160f81b031916908160001a905350612366600a8661285c565b9450612306565b949350505050565b8151815160009184918491101561239157600092505050610c3e565b60005b815183516123a29190612870565b811161244857600160005b8351811015612421578381815181106123c8576123c86127fc565b01602001516001600160f81b031916856123e283866126f0565b815181106123f2576123f26127fc565b01602001516001600160f81b0319161461240f5760009150612421565b8061241981612812565b9150506123ad565b508015612435576001945050505050610c3e565b508061244081612812565b915050612394565b50600095945050505050565b60008160000361246657506000919050565b6001608083901c1561247d5760809290921c9160401b5b604083901c156124925760409290921c9160201b5b602083901c156124a75760209290921c9160101b5b601083901c156124bc5760109290921c9160081b5b600883901c156124d15760089290921c9160041b5b600483901c156124e65760049290921c9160021b5b600283901c15610c3e5760011b92915050565b6040518060c0016040528060006001600160a01b03168152602001600081526020016000815260200160008152602001600015158152602001600081525090565b8260038101928215612568579160200282015b8281111561256857825182559160200191906001019061254d565b50612574929150612578565b5090565b5b808211156125745760008155600101612579565b6001600160a01b038116811461102657600080fd5b6000602082840312156125b457600080fd5b8135611be88161258d565b600080604083850312156125d257600080fd5b82356125dd8161258d565b946020939093013593505050565b602080825282518282018190526000919060409081850190868401855b8281101561266157815180516001600160a01b03168552868101518786015285810151868601526060808201519086015260808082015115159086015260a0908101519085015260c09093019290850190600101612608565b5091979650505050505050565b60006060828403121561268057600080fd5b8260608301111561269057600080fd5b50919050565b6000602082840312156126a857600080fd5b5035919050565b60208082526011908201527027379030b1ba34bb329039b2b9b9b4b7b760791b604082015260600190565b634e487b7160e01b600052601160045260246000fd5b80820180821115610c3e57610c3e6126da565b634e487b7160e01b600052604160045260246000fd5b604051610120810167ffffffffffffffff8111828210171561274b57634e487b7160e01b600052604160045260246000fd5b60405290565b80516005811061276057600080fd5b919050565b8051801515811461276057600080fd5b6000610120828403121561278857600080fd5b612790612719565b8251815260208301516020820152604083015160408201526127b460608401612751565b60608201526080830151608082015260a083015160a08201526127d960c08401612765565b60c082015260e08381015190820152610100928301519281019290925250919050565b634e487b7160e01b600052603260045260246000fd5b600060018201612824576128246126da565b5060010190565b60006020828403121561283d57600080fd5b611be882612765565b634e487b7160e01b600052601260045260246000fd5b60008261286b5761286b612846565b500490565b81810381811115610c3e57610c3e6126da565b60006020828403121561289557600080fd5b8151611be88161258d565b60a081016060858337606082019390935260800152919050565b8082028115828204841417610c3e57610c3e6126da565b6000826128e0576128e0612846565b500690565b634e487b7160e01b600052602160045260246000fd5b828152604081016005831061292057634e487b7160e01b600052602160045260246000fd5b8260208301529392505050565b60006020828403121561293f57600080fd5b505191905056fea2646970667358221220115817f0efa44d4db64f8142786859429cfdefb5d8677e388c6ccd4aad9ce43164736f6c63430008140033",
  "devdoc": {
    "errors": {
      "OwnableInvalidOwner(address)": [
        {
          "details": "The owner is not a valid owner account. (eg. `address(0)`)"
        }
      ],
      "OwnableUnauthorizedAccount(address)": [
        {
          "details": "The caller account is not authorized to perform an operation."
        }
      ],
      "ReentrancyGuardReentrantCall()": [
        {
          "details": "Unauthorized reentrant call."
        }
      ]
    },
    "kind": "dev",
    "methods": {
      "owner()": {
        "details": "Returns the address of the current owner."
      },
      "renounceOwnership()": {
        "details": "Leaves the contract without owner. It will not be possible to call `onlyOwner` functions. Can only be called by the current owner. NOTE: Renouncing ownership will leave the contract without an owner, thereby disabling any functionality that is only available to the owner."
      },
      "transferOwnership(address)": {
        "details": "Transfers ownership of the contract to a new account (`newOwner`). Can only be called by the current owner."
      }
    },
    "version": 1
  },
  "userdoc": {
    "kind": "user",
    "methods": {},
    "version": 1
  },
  "storageLayout": {
    "storage": [
      {
        "astId": 8,
        "contract": "contracts/MiningEngine.sol:MiningEngine",
        "label": "_owner",
        "offset": 0,
        "slot": "0",
        "type": "t_address"
      },
      {
        "astId": 1991,
        "contract": "contracts/MiningEngine.sol:MiningEngine",
        "label": "_status",
        "offset": 0,
        "slot": "1",
        "type": "t_uint256"
      },
      {
        "astId": 5226,
        "contract": "contracts/MiningEngine.sol:MiningEngine",
        "label": "gameManager",
        "offset": 0,
        "slot": "2",
        "type": "t_contract(GameManager)4584"
      },
      {
        "astId": 5229,
        "contract": "contracts/MiningEngine.sol:MiningEngine",
        "label": "minerNFT",
        "offset": 0,
        "slot": "3",
        "type": "t_contract(MinerNFT)5212"
      },
      {
        "astId": 5232,
        "contract": "contracts/MiningEngine.sol:MiningEngine",
        "label": "rewardManager",
        "offset": 0,
        "slot": "4",
        "type": "t_contract(RewardManager)7624"
      },
      {
        "astId": 5285,
        "contract": "contracts/MiningEngine.sol:MiningEngine",
        "label": "activeSessions",
        "offset": 0,
        "slot": "5",
        "type": "t_mapping(t_address,t_struct(MiningSession)5255_storage)"
      },
      {
        "astId": 5291,
        "contract": "contracts/MiningEngine.sol:MiningEngine",
        "label": "miningHistory",
        "offset": 0,
        "slot": "6",
        "type": "t_mapping(t_address,t_array(t_struct(MiningAttempt)5268_storage)dyn_storage)"
      },
      {
        "astId": 5295,
        "contract": "contracts/MiningEngine.sol:MiningEngine",
        "label": "playerTotalSuccesses",
        "offset": 0,
        "slot": "7",
        "type": "t_mapping(t_address,t_uint256)"
      },
      {
        "astId": 5299,
        "contract": "contracts/MiningEngine.sol:MiningEngine",
        "label": "autoMiningEnabled",
        "offset": 0,
        "slot": "8",
        "type": "t_mapping(t_address,t_bool)"
      }
    ],
    "types": {
      "t_address": {
        "encoding": "inplace",
        "label": "address",
        "numberOfBytes": "20"
      },
      "t_array(t_struct(MiningAttempt)5268_storage)dyn_storage": {
        "base": "t_struct(MiningAttempt)5268_storage",
        "encoding": "dynamic_array",
        "label": "struct MiningEngine.MiningAttempt[]",
        "numberOfBytes": "32"
      },
      "t_array(t_uint256)3_storage": {
        "base": "t_uint256",
        "encoding": "inplace",
        "label": "uint256[3]",
        "numberOfBytes": "96"
      },
      "t_bool": {
        "encoding": "inplace",
        "label": "bool",
        "numberOfBytes": "1"
      },
      "t_contract(GameManager)4584": {
        "encoding": "inplace",
        "label": "contract GameManager",
        "numberOfBytes": "20"
      },
      "t_contract(MinerNFT)5212": {
        "encoding": "inplace",
        "label": "contract MinerNFT",
        "numberOfBytes": "20"
      },
      "t_contract(RewardManager)7624": {
        "encoding": "inplace",
        "label": "contract RewardManager",
        "numberOfBytes": "20"
      },
      "t_mapping(t_address,t_array(t_struct(MiningAttempt)5268_storage)dyn_storage)": {
        "encoding": "mapping",
        "key": "t_address",
        "label": "mapping(address => struct MiningEngine.MiningAttempt[])",
        "numberOfBytes": "32",
        "value": "t_array(t_struct(MiningAttempt)5268_storage)dyn_storage"
      },
      "t_mapping(t_address,t_bool)": {
        "encoding": "mapping",
        "key": "t_address",
        "label": "mapping(address => bool)",
        "numberOfBytes": "32",
        "value": "t_bool"
      },
      "t_mapping(t_address,t_struct(MiningSession)5255_storage)": {
        "encoding": "mapping",
        "key": "t_address",
        "label": "mapping(address => struct MiningEngine.MiningSession)",
        "numberOfBytes": "32",
        "value": "t_struct(MiningSession)5255_storage"
      },
      "t_mapping(t_address,t_uint256)": {
        "encoding": "mapping",
        "key": "t_address",
        "label": "mapping(address => uint256)",
        "numberOfBytes": "32",
        "value": "t_uint256"
      },
      "t_struct(MiningAttempt)5268_storage": {
        "encoding": "inplace",
        "label": "struct MiningEngine.MiningAttempt",
        "members": [
          {
            "astId": 5257,
            "contract": "contracts/MiningEngine.sol:MiningEngine",
            "label": "player",
            "offset": 0,
            "slot": "0",
            "type": "t_address"
          },
          {
            "astId": 5259,
            "contract": "contracts/MiningEngine.sol:MiningEngine",
            "label": "nftId",
            "offset": 0,
            "slot": "1",
            "type": "t_uint256"
          },
          {
            "astId": 5261,
            "contract": "contracts/MiningEngine.sol:MiningEngine",
            "label": "roundId",
            "offset": 0,
            "slot": "2",
            "type": "t_uint256"
          },
          {
            "astId": 5263,
            "contract": "contracts/MiningEngine.sol:MiningEngine",
            "label": "randomNumber",
            "offset": 0,
            "slot": "3",
            "type": "t_uint256"
          },
          {
            "astId": 5265,
            "contract": "contracts/MiningEngine.sol:MiningEngine",
            "label": "success",
            "offset": 0,
            "slot": "4",
            "type": "t_bool"
          },
          {
            "astId": 5267,
            "contract": "contracts/MiningEngine.sol:MiningEngine",
            "label": "timestamp",
            "offset": 0,
            "slot": "5",
            "type": "t_uint256"
          }
        ],
        "numberOfBytes": "192"
      },
      "t_struct(MiningSession)5255_storage": {
        "encoding": "inplace",
        "label": "struct MiningEngine.MiningSession",
        "members": [
          {
            "astId": 5234,
            "contract": "contracts/MiningEngine.sol:MiningEngine",
            "label": "player",
            "offset": 0,
            "slot": "0",
            "type": "t_address"
          },
          {
            "astId": 5238,
            "contract": "contracts/MiningEngine.sol:MiningEngine",
            "label": "nftIds",
            "offset": 0,
            "slot": "1",
            "type": "t_array(t_uint256)3_storage"
          },
          {
            "astId": 5240,
            "contract": "contracts/MiningEngine.sol:MiningEngine",
            "label": "roundId",
            "offset": 0,
            "slot": "4",
            "type": "t_uint256"
          },
          {
            "astId": 5242,
            "contract": "contracts/MiningEngine.sol:MiningEngine",
            "label": "startTime",
            "offset": 0,
            "slot": "5",
            "type": "t_uint256"
          },
          {
            "astId": 5244,
            "contract": "contracts/MiningEngine.sol:MiningEngine",
            "label": "isActive",
            "offset": 0,
            "slot": "6",
            "type": "t_bool"
          },
          {
            "astId": 5246,
            "contract": "contracts/MiningEngine.sol:MiningEngine",
            "label": "totalAttempts",
            "offset": 0,
            "slot": "7",
            "type": "t_uint256"
          },
          {
            "astId": 5248,
            "contract": "contracts/MiningEngine.sol:MiningEngine",
            "label": "totalSuccesses",
            "offset": 0,
            "slot": "8",
            "type": "t_uint256"
          },
          {
            "astId": 5250,
            "contract": "contracts/MiningEngine.sol:MiningEngine",
            "label": "lastMiningTime",
            "offset": 0,
            "slot": "9",
            "type": "t_uint256"
          },
          {
            "astId": 5252,
            "contract": "contracts/MiningEngine.sol:MiningEngine",
            "label": "autoMining",
            "offset": 0,
            "slot": "10",
            "type": "t_bool"
          },
          {
            "astId": 5254,
            "contract": "contracts/MiningEngine.sol:MiningEngine",
            "label": "nextAutoMiningTime",
            "offset": 0,
            "slot": "11",
            "type": "t_uint256"
          }
        ],
        "numberOfBytes": "384"
      },
      "t_uint256": {
        "encoding": "inplace",
        "label": "uint256",
        "numberOfBytes": "32"
      }
    }
  }
}