{
  "address": "0xf0744a33261d7357fEa8658e7a661543A6F3016C",
  "abi": [
    {
      "inputs": [
        {
          "internalType": "address",
          "name": "_gameManager",
          "type": "address"
        },
        {
          "internalType": "address",
          "name": "_minerNFT",
          "type": "address"
        },
        {
          "internalType": "address",
          "name": "_rewardManager",
          "type": "address"
        }
      ],
      "stateMutability": "nonpayable",
      "type": "constructor"
    },
    {
      "inputs": [
        {
          "internalType": "address",
          "name": "owner",
          "type": "address"
        }
      ],
      "name": "OwnableInvalidOwner",
      "type": "error"
    },
    {
      "inputs": [
        {
          "internalType": "address",
          "name": "account",
          "type": "address"
        }
      ],
      "name": "OwnableUnauthorizedAccount",
      "type": "error"
    },
    {
      "inputs": [],
      "name": "ReentrancyGuardReentrantCall",
      "type": "error"
    },
    {
      "anonymous": false,
      "inputs": [
        {
          "indexed": true,
          "internalType": "address",
          "name": "player",
          "type": "address"
        },
        {
          "indexed": true,
          "internalType": "uint256",
          "name": "nftId",
          "type": "uint256"
        },
        {
          "indexed": false,
          "internalType": "uint256",
          "name": "randomNumber",
          "type": "uint256"
        },
        {
          "indexed": false,
          "internalType": "bool",
          "name": "success",
          "type": "bool"
        },
        {
          "indexed": false,
          "internalType": "uint256",
          "name": "roundId",
          "type": "uint256"
        },
        {
          "indexed": false,
          "internalType": "uint256",
          "name": "timestamp",
          "type": "uint256"
        }
      ],
      "name": "MiningAttemptMade",
      "type": "event"
    },
    {
      "anonymous": false,
      "inputs": [
        {
          "indexed": true,
          "internalType": "address",
          "name": "player",
          "type": "address"
        },
        {
          "indexed": true,
          "internalType": "uint256",
          "name": "nftId",
          "type": "uint256"
        },
        {
          "indexed": false,
          "internalType": "uint256",
          "name": "randomNumber",
          "type": "uint256"
        },
        {
          "indexed": false,
          "internalType": "uint256",
          "name": "roundId",
          "type": "uint256"
        },
        {
          "indexed": false,
          "internalType": "uint256",
          "name": "timestamp",
          "type": "uint256"
        }
      ],
      "name": "MiningSuccess",
      "type": "event"
    },
    {
      "anonymous": false,
      "inputs": [
        {
          "indexed": true,
          "internalType": "address",
          "name": "previousOwner",
          "type": "address"
        },
        {
          "indexed": true,
          "internalType": "address",
          "name": "newOwner",
          "type": "address"
        }
      ],
      "name": "OwnershipTransferred",
      "type": "event"
    },
    {
      "inputs": [
        {
          "internalType": "uint256",
          "name": "nftId",
          "type": "uint256"
        }
      ],
      "name": "attemptMining",
      "outputs": [],
      "stateMutability": "nonpayable",
      "type": "function"
    },
    {
      "inputs": [],
      "name": "gameManager",
      "outputs": [
        {
          "internalType": "contract GameManager",
          "name": "",
          "type": "address"
        }
      ],
      "stateMutability": "view",
      "type": "function"
    },
    {
      "inputs": [
        {
          "internalType": "address",
          "name": "player",
          "type": "address"
        },
        {
          "internalType": "uint256",
          "name": "limit",
          "type": "uint256"
        }
      ],
      "name": "getMiningHistory",
      "outputs": [
        {
          "components": [
            {
              "internalType": "address",
              "name": "player",
              "type": "address"
            },
            {
              "internalType": "uint256",
              "name": "nftId",
              "type": "uint256"
            },
            {
              "internalType": "uint256",
              "name": "roundId",
              "type": "uint256"
            },
            {
              "internalType": "uint256",
              "name": "randomNumber",
              "type": "uint256"
            },
            {
              "internalType": "bool",
              "name": "success",
              "type": "bool"
            },
            {
              "internalType": "uint256",
              "name": "timestamp",
              "type": "uint256"
            }
          ],
          "internalType": "struct MiningEngine.MiningAttempt[]",
          "name": "",
          "type": "tuple[]"
        }
      ],
      "stateMutability": "view",
      "type": "function"
    },
    {
      "inputs": [
        {
          "internalType": "address",
          "name": "player",
          "type": "address"
        }
      ],
      "name": "getPlayerStats",
      "outputs": [
        {
          "components": [
            {
              "internalType": "uint256",
              "name": "totalAttempts",
              "type": "uint256"
            },
            {
              "internalType": "uint256",
              "name": "totalSuccesses",
              "type": "uint256"
            },
            {
              "internalType": "uint256",
              "name": "lastMiningTime",
              "type": "uint256"
            }
          ],
          "internalType": "struct MiningEngine.PlayerStats",
          "name": "",
          "type": "tuple"
        }
      ],
      "stateMutability": "view",
      "type": "function"
    },
    {
      "inputs": [
        {
          "internalType": "address",
          "name": "player",
          "type": "address"
        },
        {
          "internalType": "uint256",
          "name": "count",
          "type": "uint256"
        }
      ],
      "name": "getRecentSuccesses",
      "outputs": [
        {
          "components": [
            {
              "internalType": "address",
              "name": "player",
              "type": "address"
            },
            {
              "internalType": "uint256",
              "name": "nftId",
              "type": "uint256"
            },
            {
              "internalType": "uint256",
              "name": "roundId",
              "type": "uint256"
            },
            {
              "internalType": "uint256",
              "name": "randomNumber",
              "type": "uint256"
            },
            {
              "internalType": "bool",
              "name": "success",
              "type": "bool"
            },
            {
              "internalType": "uint256",
              "name": "timestamp",
              "type": "uint256"
            }
          ],
          "internalType": "struct MiningEngine.MiningAttempt[]",
          "name": "",
          "type": "tuple[]"
        }
      ],
      "stateMutability": "view",
      "type": "function"
    },
    {
      "inputs": [],
      "name": "minerNFT",
      "outputs": [
        {
          "internalType": "contract MinerNFT",
          "name": "",
          "type": "address"
        }
      ],
      "stateMutability": "view",
      "type": "function"
    },
    {
      "inputs": [
        {
          "internalType": "address",
          "name": "",
          "type": "address"
        },
        {
          "internalType": "uint256",
          "name": "",
          "type": "uint256"
        }
      ],
      "name": "miningHistory",
      "outputs": [
        {
          "internalType": "address",
          "name": "player",
          "type": "address"
        },
        {
          "internalType": "uint256",
          "name": "nftId",
          "type": "uint256"
        },
        {
          "internalType": "uint256",
          "name": "roundId",
          "type": "uint256"
        },
        {
          "internalType": "uint256",
          "name": "randomNumber",
          "type": "uint256"
        },
        {
          "internalType": "bool",
          "name": "success",
          "type": "bool"
        },
        {
          "internalType": "uint256",
          "name": "timestamp",
          "type": "uint256"
        }
      ],
      "stateMutability": "view",
      "type": "function"
    },
    {
      "inputs": [],
      "name": "owner",
      "outputs": [
        {
          "internalType": "address",
          "name": "",
          "type": "address"
        }
      ],
      "stateMutability": "view",
      "type": "function"
    },
    {
      "inputs": [
        {
          "internalType": "address",
          "name": "",
          "type": "address"
        }
      ],
      "name": "playerStats",
      "outputs": [
        {
          "internalType": "uint256",
          "name": "totalAttempts",
          "type": "uint256"
        },
        {
          "internalType": "uint256",
          "name": "totalSuccesses",
          "type": "uint256"
        },
        {
          "internalType": "uint256",
          "name": "lastMiningTime",
          "type": "uint256"
        }
      ],
      "stateMutability": "view",
      "type": "function"
    },
    {
      "inputs": [
        {
          "internalType": "address",
          "name": "",
          "type": "address"
        }
      ],
      "name": "playerTotalSuccesses",
      "outputs": [
        {
          "internalType": "uint256",
          "name": "",
          "type": "uint256"
        }
      ],
      "stateMutability": "view",
      "type": "function"
    },
    {
      "inputs": [],
      "name": "renounceOwnership",
      "outputs": [],
      "stateMutability": "nonpayable",
      "type": "function"
    },
    {
      "inputs": [],
      "name": "rewardManager",
      "outputs": [
        {
          "internalType": "contract RewardManager",
          "name": "",
          "type": "address"
        }
      ],
      "stateMutability": "view",
      "type": "function"
    },
    {
      "inputs": [
        {
          "internalType": "address",
          "name": "_gameManager",
          "type": "address"
        }
      ],
      "name": "setGameManager",
      "outputs": [],
      "stateMutability": "nonpayable",
      "type": "function"
    },
    {
      "inputs": [
        {
          "internalType": "address",
          "name": "_minerNFT",
          "type": "address"
        }
      ],
      "name": "setMinerNFT",
      "outputs": [],
      "stateMutability": "nonpayable",
      "type": "function"
    },
    {
      "inputs": [
        {
          "internalType": "address",
          "name": "_rewardManager",
          "type": "address"
        }
      ],
      "name": "setRewardManager",
      "outputs": [],
      "stateMutability": "nonpayable",
      "type": "function"
    },
    {
      "inputs": [
        {
          "internalType": "address",
          "name": "newOwner",
          "type": "address"
        }
      ],
      "name": "transferOwnership",
      "outputs": [],
      "stateMutability": "nonpayable",
      "type": "function"
    }
  ],
  "transactionHash": "0x2fcbf5fd82b6f1643351d8bf95ace698ad0e60d7bec80ba6efbefb8735536012",
  "args": [
    "0xf68eEC3e48a6f80da9107449fB521510e6450748",
    "0xcfCe0fa22212F176B38C2b9435c41f093e15e5bD",
    "0xE0F15D16E0666bC625b938Cd48a636e0506e5A7A"
  ],
  "numDeployments": 5,
  "solcInputHash": "07c2e468804996709e7637c479c5e320",
  "bytecode": "0x60806040523480156200001157600080fd5b50604051620018953803806200189583398101604081905262000034916200011b565b33806200005b57604051631e4fbdf760e01b81526000600482015260240160405180910390fd5b6200006681620000ae565b5060018055600280546001600160a01b039485166001600160a01b03199182161790915560038054938516938216939093179092556004805491909316911617905562000165565b600080546001600160a01b038381166001600160a01b0319831681178455604051919092169283917f8be0079c531659141344cd1fd0a4f28419497f9722a3daafe3b4186f6b6457e09190a35050565b80516001600160a01b03811681146200011657600080fd5b919050565b6000806000606084860312156200013157600080fd5b6200013c84620000fe565b92506200014c60208501620000fe565b91506200015c60408501620000fe565b90509250925092565b61172080620001756000396000f3fe608060405234801561001057600080fd5b50600436106101005760003560e01c80638da5cb5b11610097578063c6b0526611610066578063c6b052661461027e578063cdafbbb614610291578063e4f49d21146102db578063f2fde38b146102ee57600080fd5b80638da5cb5b14610219578063996a0b5b1461022a578063b7127e4114610258578063c4d137c61461026b57600080fd5b80634eff2240116100d35780634eff22401461017d5780634fd66eae146101c9578063715018a6146101fe5780638387b99d1461020657600080fd5b80630f4ef8a614610105578063153ee5541461013557806326ea71c21461014a5780634da3255d1461016a575b600080fd5b600454610118906001600160a01b031681565b6040516001600160a01b0390911681526020015b60405180910390f35b6101486101433660046113c8565b610301565b005b61015d6101583660046113e5565b61032b565b60405161012c9190611411565b6101486101783660046113c8565b6104ca565b61019061018b3660046113e5565b6104f4565b604080516001600160a01b03909716875260208701959095529385019290925260608401521515608083015260a082015260c00161012c565b6101dc6101d73660046113c8565b610558565b604080518251815260208084015190820152918101519082015260600161012c565b6101486105be565b61015d6102143660046113e5565b6105d2565b6000546001600160a01b0316610118565b61024a6102383660046113c8565b60076020526000908152604090205481565b60405190815260200161012c565b6101486102663660046113c8565b610803565b600354610118906001600160a01b031681565b600254610118906001600160a01b031681565b6102c061029f3660046113c8565b60056020526000908152604090208054600182015460029092015490919083565b6040805193845260208401929092529082015260600161012c565b6101486102e9366004611494565b61082d565b6101486102fc3660046113c8565b610cda565b610309610d15565b600480546001600160a01b0319166001600160a01b0392909216919091179055565b6001600160a01b0382166000908152600660209081526040808320805482518185028101850190935280835260609493849084015b828210156103d65760008481526020908190206040805160c0810182526006860290920180546001600160a01b031683526001808201548486015260028201549284019290925260038101546060840152600481015460ff16151560808401526005015460a08301529083529092019101610360565b50505050905082600014806103eb5750805183115b156103f75790506104c4565b60008367ffffffffffffffff811115610412576104126114ad565b60405190808252806020026020018201604052801561044b57816020015b610438611372565b8152602001906001900390816104305790505b509050600084835161045d91906114d9565b905060005b858110156104bd578361047582846114ec565b81518110610485576104856114ff565b602002602001015183828151811061049f5761049f6114ff565b602002602001018190525080806104b590611515565b915050610462565b5090925050505b92915050565b6104d2610d15565b600380546001600160a01b0319166001600160a01b0392909216919091179055565b6006602052816000526040600020818154811061051057600080fd5b60009182526020909120600690910201805460018201546002830154600384015460048501546005909501546001600160a01b03909416965091945092909160ff9091169086565b61057c60405180606001604052806000815260200160008152602001600081525090565b506001600160a01b0316600090815260056020908152604091829020825160608101845281548152600182015492810192909252600201549181019190915290565b6105c6610d15565b6105d06000610d42565b565b6001600160a01b0382166000908152600660209081526040808320805482518185028101850190935280835260609493849084015b8282101561067d5760008481526020908190206040805160c0810182526006860290920180546001600160a01b031683526001808201548486015260028201549284019290925260038101546060840152600481015460ff16151560808401526005015460a08301529083529092019101610607565b5050505090506000806000835190505b60008111801561069c57508583105b156106fc57836106ad6001836114d9565b815181106106bd576106bd6114ff565b602002602001015160800151156106dc57826106d881611515565b9350505b816106e681611515565b92505080806106f49061152e565b91505061068d565b5060008267ffffffffffffffff811115610718576107186114ad565b60405190808252806020026020018201604052801561075157816020015b61073e611372565b8152602001906001900390816107365790505b50905060008083865161076491906114d9565b90505b85518110801561077657508482105b156107f65785818151811061078d5761078d6114ff565b602002602001015160800151156107e4578581815181106107b0576107b06114ff565b60200260200101518383815181106107ca576107ca6114ff565b602002602001018190525081806107e090611515565b9250505b806107ee81611515565b915050610767565b5090979650505050505050565b61080b610d15565b600280546001600160a01b0319166001600160a01b0392909216919091179055565b610835610d92565b600260009054906101000a90046001600160a01b03166001600160a01b03166345945a456040518163ffffffff1660e01b8152600401602060405180830381865afa158015610888573d6000803e3d6000fd5b505050506040513d601f19601f820116820180604052508101906108ac919061155a565b6108ef5760405162461bcd60e51b815260206004820152600f60248201526e139bc81858dd1a5d99481c9bdd5b99608a1b60448201526064015b60405180910390fd5b6003546040516331a9108f60e11b81526004810183905233916001600160a01b031690636352211e90602401602060405180830381865afa158015610938573d6000803e3d6000fd5b505050506040513d601f19601f8201168201806040525081019061095c9190611575565b6001600160a01b0316146109a25760405162461bcd60e51b815260206004820152600d60248201526c2737ba1027232a1037bbb732b960991b60448201526064016108e6565b6002546040805163a32bf59760e01b815290516000926001600160a01b03169163a32bf5979160048083019260c09291908290030181865afa1580156109ec573d6000803e3d6000fd5b505050506040513d601f19601f82011682018060405250810190610a1091906115a1565b90506000610a1d83610dbc565b90506000610a2c828585610e1b565b336000908152600560205260408120805492935090610a4a83611515565b90915550503360008181526005602081815260408084204260029182018190556006808552838720845160c0810186528981528087018e81528d51828801908152606083018e81528d15156080850190815260a08501888152865460018181018955978f529b909d2094519a90960290930180546001600160a01b039a909a166001600160a01b0319909a1699909917895590519288019290925590519386019390935591516003850155905160048401805491151560ff1990921691909117905593519190920155855190518793927fc57340d4f7608bf773fee1f3e459cc65ebcf386c54cc7472844b7a4142fe511192610b6092889288929193845291151560208401526040830152606082015260800190565b60405180910390a38015610ccb57336000908152600560205260408120600101805491610b8c83611515565b9091555050336000908152600760205260408120805491610bac83611515565b90915550506004805460405163062bcb8d60e11b815233928101929092526001600160a01b031690630c57971a90602401600060405180830381600087803b158015610bf757600080fd5b505af1158015610c0b573d6000803e3d6000fd5b505084516040805186815260208101929092524282820152518793503392507f753244bf3a31bdabae643d3f0b38eefe101e7e80bced1b8a8ef071ff82ab91d99181900360600190a3336000908152600760205260409020546103e811610ccb576004805460405163df49f66360e01b815233928101929092526001600160a01b03169063df49f66390602401600060405180830381600087803b158015610cb257600080fd5b505af1158015610cc6573d6000803e3d6000fd5b505050505b505050610cd760018055565b50565b610ce2610d15565b6001600160a01b038116610d0c57604051631e4fbdf760e01b8152600060048201526024016108e6565b610cd781610d42565b6000546001600160a01b031633146105d05760405163118cdaa760e01b81523360048201526024016108e6565b600080546001600160a01b038381166001600160a01b0319831681178455604051919092169283917f8be0079c531659141344cd1fd0a4f28419497f9722a3daafe3b4186f6b6457e09190a35050565b600260015403610db557604051633ee5aeb560e01b815260040160405180910390fd5b6002600155565b6000424433845a6040805160208101969096528501939093526bffffffffffffffffffffffff19606092831b16918401919091526074830152609482015260b40160408051601f19818403018152919052805160209091012092915050565b606081015160808201516000918291610e359082906114d9565b610e409060016114ec565b610e4a908761164a565b610e5491906114ec565b90506000610e66828560400151610f10565b905080610e7857600092505050610f09565b600354604080860151905163937a79e960e01b81526000926001600160a01b03169163937a79e991610eae918a91600401611674565b602060405180830381865afa158015610ecb573d6000803e3d6000fd5b505050506040513d601f19601f82011682018060405250810190610eef91906116a6565b90506000610eff6127108961164a565b9190911093505050505b9392505050565b600080826004811115610f2557610f2561165e565b03610f3d57610f3560028461164a565b1590506104c4565b6001826004811115610f5157610f5161165e565b03610f6b57610f6160028461164a565b60011490506104c4565b6002826004811115610f7f57610f7f61165e565b03610f9457610f8d83610fe1565b90506104c4565b6003826004811115610fa857610fa861165e565b03610fb657610f8d83611066565b6004826004811115610fca57610fca61165e565b03610fd857610f8d836110b3565b50600092915050565b60006002821015610ff457506000919050565b8160020361100457506001919050565b61100f60028361164a565b60000361101e57506000919050565b60035b8261102c82806116bf565b1161105d5761103b818461164a565b60000361104b5750600092915050565b6110566002826114ec565b9050611021565b50600192915050565b600080611072836110e5565b905061109981604051806040016040528060038152602001620ccc4d60ea1b8152506111ee565b80610f0957506110ab61013a8461164a565b159392505050565b6000816000036110c557506001919050565b60006110d0836112cd565b9050826110dd82806116bf565b149392505050565b60608160000361110c5750506040805180820190915260018152600360fc1b602082015290565b8160005b8115611136578061112081611515565b915061112f9050600a836116d6565b9150611110565b60008167ffffffffffffffff811115611151576111516114ad565b6040519080825280601f01601f19166020018201604052801561117b576020820181803683370190505b5090505b84156111e6576111906001836114d9565b915061119d600a8661164a565b6111a89060306114ec565b60f81b8183815181106111bd576111bd6114ff565b60200101906001600160f81b031916908160001a9053506111df600a866116d6565b945061117f565b949350505050565b8151815160009184918491101561120a576000925050506104c4565b60005b8151835161121b91906114d9565b81116112c157600160005b835181101561129a57838181518110611241576112416114ff565b01602001516001600160f81b0319168561125b83866114ec565b8151811061126b5761126b6114ff565b01602001516001600160f81b03191614611288576000915061129a565b8061129281611515565b915050611226565b5080156112ae5760019450505050506104c4565b50806112b981611515565b91505061120d565b50600095945050505050565b6000816000036112df57506000919050565b6001608083901c156112f65760809290921c9160401b5b604083901c1561130b5760409290921c9160201b5b602083901c156113205760209290921c9160101b5b601083901c156113355760109290921c9160081b5b600883901c1561134a5760089290921c9160041b5b600483901c1561135f5760049290921c9160021b5b600283901c156104c45760011b92915050565b6040518060c0016040528060006001600160a01b03168152602001600081526020016000815260200160008152602001600015158152602001600081525090565b6001600160a01b0381168114610cd757600080fd5b6000602082840312156113da57600080fd5b8135610f09816113b3565b600080604083850312156113f857600080fd5b8235611403816113b3565b946020939093013593505050565b602080825282518282018190526000919060409081850190868401855b8281101561148757815180516001600160a01b03168552868101518786015285810151868601526060808201519086015260808082015115159086015260a0908101519085015260c0909301929085019060010161142e565b5091979650505050505050565b6000602082840312156114a657600080fd5b5035919050565b634e487b7160e01b600052604160045260246000fd5b634e487b7160e01b600052601160045260246000fd5b818103818111156104c4576104c46114c3565b808201808211156104c4576104c46114c3565b634e487b7160e01b600052603260045260246000fd5b600060018201611527576115276114c3565b5060010190565b60008161153d5761153d6114c3565b506000190190565b8051801515811461155557600080fd5b919050565b60006020828403121561156c57600080fd5b610f0982611545565b60006020828403121561158757600080fd5b8151610f09816113b3565b80516005811061155557600080fd5b600060c082840312156115b357600080fd5b60405160c0810181811067ffffffffffffffff821117156115e457634e487b7160e01b600052604160045260246000fd5b8060405250825181526020830151602082015261160360408401611592565b6040820152606083015160608201526080830151608082015261162860a08401611545565b60a08201529392505050565b634e487b7160e01b600052601260045260246000fd5b60008261165957611659611634565b500690565b634e487b7160e01b600052602160045260246000fd5b828152604081016005831061169957634e487b7160e01b600052602160045260246000fd5b8260208301529392505050565b6000602082840312156116b857600080fd5b5051919050565b80820281158282048414176104c4576104c46114c3565b6000826116e5576116e5611634565b50049056fea2646970667358221220d5a8de41f7a9446535695e640335328a0354278c5a5e0602333f95c62052d46a64736f6c63430008140033",
  "devdoc": {
    "errors": {
      "OwnableInvalidOwner(address)": [
        {
          "details": "The owner is not a valid owner account. (eg. `address(0)`)"
        }
      ],
      "OwnableUnauthorizedAccount(address)": [
        {
          "details": "The caller account is not authorized to perform an operation."
        }
      ],
      "ReentrancyGuardReentrantCall()": [
        {
          "details": "Unauthorized reentrant call."
        }
      ]
    },
    "kind": "dev",
    "methods": {
      "owner()": {
        "details": "Returns the address of the current owner."
      },
      "renounceOwnership()": {
        "details": "Leaves the contract without owner. It will not be possible to call `onlyOwner` functions. Can only be called by the current owner. NOTE: Renouncing ownership will leave the contract without an owner, thereby disabling any functionality that is only available to the owner."
      },
      "transferOwnership(address)": {
        "details": "Transfers ownership of the contract to a new account (`newOwner`). Can only be called by the current owner."
      }
    },
    "version": 1
  },
  "userdoc": {
    "kind": "user",
    "methods": {},
    "version": 1
  },
  "storageLayout": {
    "storage": [
      {
        "astId": 8,
        "contract": "contracts/MiningEngine.sol:MiningEngine",
        "label": "_owner",
        "offset": 0,
        "slot": "0",
        "type": "t_address"
      },
      {
        "astId": 1991,
        "contract": "contracts/MiningEngine.sol:MiningEngine",
        "label": "_status",
        "offset": 0,
        "slot": "1",
        "type": "t_uint256"
      },
      {
        "astId": 4615,
        "contract": "contracts/MiningEngine.sol:MiningEngine",
        "label": "gameManager",
        "offset": 0,
        "slot": "2",
        "type": "t_contract(GameManager)3973"
      },
      {
        "astId": 4618,
        "contract": "contracts/MiningEngine.sol:MiningEngine",
        "label": "minerNFT",
        "offset": 0,
        "slot": "3",
        "type": "t_contract(MinerNFT)4601"
      },
      {
        "astId": 4621,
        "contract": "contracts/MiningEngine.sol:MiningEngine",
        "label": "rewardManager",
        "offset": 0,
        "slot": "4",
        "type": "t_contract(RewardManager)6268"
      },
      {
        "astId": 4646,
        "contract": "contracts/MiningEngine.sol:MiningEngine",
        "label": "playerStats",
        "offset": 0,
        "slot": "5",
        "type": "t_mapping(t_address,t_struct(PlayerStats)4628_storage)"
      },
      {
        "astId": 4652,
        "contract": "contracts/MiningEngine.sol:MiningEngine",
        "label": "miningHistory",
        "offset": 0,
        "slot": "6",
        "type": "t_mapping(t_address,t_array(t_struct(MiningAttempt)4641_storage)dyn_storage)"
      },
      {
        "astId": 4656,
        "contract": "contracts/MiningEngine.sol:MiningEngine",
        "label": "playerTotalSuccesses",
        "offset": 0,
        "slot": "7",
        "type": "t_mapping(t_address,t_uint256)"
      }
    ],
    "types": {
      "t_address": {
        "encoding": "inplace",
        "label": "address",
        "numberOfBytes": "20"
      },
      "t_array(t_struct(MiningAttempt)4641_storage)dyn_storage": {
        "base": "t_struct(MiningAttempt)4641_storage",
        "encoding": "dynamic_array",
        "label": "struct MiningEngine.MiningAttempt[]",
        "numberOfBytes": "32"
      },
      "t_bool": {
        "encoding": "inplace",
        "label": "bool",
        "numberOfBytes": "1"
      },
      "t_contract(GameManager)3973": {
        "encoding": "inplace",
        "label": "contract GameManager",
        "numberOfBytes": "20"
      },
      "t_contract(MinerNFT)4601": {
        "encoding": "inplace",
        "label": "contract MinerNFT",
        "numberOfBytes": "20"
      },
      "t_contract(RewardManager)6268": {
        "encoding": "inplace",
        "label": "contract RewardManager",
        "numberOfBytes": "20"
      },
      "t_mapping(t_address,t_array(t_struct(MiningAttempt)4641_storage)dyn_storage)": {
        "encoding": "mapping",
        "key": "t_address",
        "label": "mapping(address => struct MiningEngine.MiningAttempt[])",
        "numberOfBytes": "32",
        "value": "t_array(t_struct(MiningAttempt)4641_storage)dyn_storage"
      },
      "t_mapping(t_address,t_struct(PlayerStats)4628_storage)": {
        "encoding": "mapping",
        "key": "t_address",
        "label": "mapping(address => struct MiningEngine.PlayerStats)",
        "numberOfBytes": "32",
        "value": "t_struct(PlayerStats)4628_storage"
      },
      "t_mapping(t_address,t_uint256)": {
        "encoding": "mapping",
        "key": "t_address",
        "label": "mapping(address => uint256)",
        "numberOfBytes": "32",
        "value": "t_uint256"
      },
      "t_struct(MiningAttempt)4641_storage": {
        "encoding": "inplace",
        "label": "struct MiningEngine.MiningAttempt",
        "members": [
          {
            "astId": 4630,
            "contract": "contracts/MiningEngine.sol:MiningEngine",
            "label": "player",
            "offset": 0,
            "slot": "0",
            "type": "t_address"
          },
          {
            "astId": 4632,
            "contract": "contracts/MiningEngine.sol:MiningEngine",
            "label": "nftId",
            "offset": 0,
            "slot": "1",
            "type": "t_uint256"
          },
          {
            "astId": 4634,
            "contract": "contracts/MiningEngine.sol:MiningEngine",
            "label": "roundId",
            "offset": 0,
            "slot": "2",
            "type": "t_uint256"
          },
          {
            "astId": 4636,
            "contract": "contracts/MiningEngine.sol:MiningEngine",
            "label": "randomNumber",
            "offset": 0,
            "slot": "3",
            "type": "t_uint256"
          },
          {
            "astId": 4638,
            "contract": "contracts/MiningEngine.sol:MiningEngine",
            "label": "success",
            "offset": 0,
            "slot": "4",
            "type": "t_bool"
          },
          {
            "astId": 4640,
            "contract": "contracts/MiningEngine.sol:MiningEngine",
            "label": "timestamp",
            "offset": 0,
            "slot": "5",
            "type": "t_uint256"
          }
        ],
        "numberOfBytes": "192"
      },
      "t_struct(PlayerStats)4628_storage": {
        "encoding": "inplace",
        "label": "struct MiningEngine.PlayerStats",
        "members": [
          {
            "astId": 4623,
            "contract": "contracts/MiningEngine.sol:MiningEngine",
            "label": "totalAttempts",
            "offset": 0,
            "slot": "0",
            "type": "t_uint256"
          },
          {
            "astId": 4625,
            "contract": "contracts/MiningEngine.sol:MiningEngine",
            "label": "totalSuccesses",
            "offset": 0,
            "slot": "1",
            "type": "t_uint256"
          },
          {
            "astId": 4627,
            "contract": "contracts/MiningEngine.sol:MiningEngine",
            "label": "lastMiningTime",
            "offset": 0,
            "slot": "2",
            "type": "t_uint256"
          }
        ],
        "numberOfBytes": "96"
      },
      "t_uint256": {
        "encoding": "inplace",
        "label": "uint256",
        "numberOfBytes": "32"
      }
    }
  }
}